{
  "_format": "hh-sol-artifact-1",
  "contractName": "GoldenTicketRedeemed",
  "sourceName": "contracts/GoldenTicketRedeemed.sol",
  "abi": [
    {
      "inputs": [
        {
          "internalType": "address",
          "name": "feeReceiver",
          "type": "address"
        },
        {
          "internalType": "string",
          "name": "baseURI",
          "type": "string"
        }
      ],
      "stateMutability": "nonpayable",
      "type": "constructor"
    },
    {
      "inputs": [],
      "name": "ApprovalCallerNotOwnerNorApproved",
      "type": "error"
    },
    {
      "inputs": [],
      "name": "ApprovalQueryForNonexistentToken",
      "type": "error"
    },
    {
      "inputs": [],
      "name": "BalanceQueryForZeroAddress",
      "type": "error"
    },
    {
      "inputs": [],
      "name": "InvalidQueryRange",
      "type": "error"
    },
    {
      "inputs": [],
      "name": "MintERC2309QuantityExceedsLimit",
      "type": "error"
    },
    {
      "inputs": [],
      "name": "MintToZeroAddress",
      "type": "error"
    },
    {
      "inputs": [],
      "name": "MintZeroQuantity",
      "type": "error"
    },
    {
      "inputs": [
        {
          "internalType": "address",
          "name": "operator",
          "type": "address"
        }
      ],
      "name": "OperatorNotAllowed",
      "type": "error"
    },
    {
      "inputs": [],
      "name": "OwnerQueryForNonexistentToken",
      "type": "error"
    },
    {
      "inputs": [],
      "name": "OwnershipNotInitializedForExtraData",
      "type": "error"
    },
    {
      "inputs": [],
      "name": "TransferCallerNotOwnerNorApproved",
      "type": "error"
    },
    {
      "inputs": [],
      "name": "TransferFromIncorrectOwner",
      "type": "error"
    },
    {
      "inputs": [],
      "name": "TransferToNonERC721ReceiverImplementer",
      "type": "error"
    },
    {
      "inputs": [],
      "name": "TransferToZeroAddress",
      "type": "error"
    },
    {
      "inputs": [],
      "name": "URIQueryForNonexistentToken",
      "type": "error"
    },
    {
      "anonymous": false,
      "inputs": [
        {
          "indexed": true,
          "internalType": "address",
          "name": "owner",
          "type": "address"
        },
        {
          "indexed": true,
          "internalType": "address",
          "name": "approved",
          "type": "address"
        },
        {
          "indexed": true,
          "internalType": "uint256",
          "name": "tokenId",
          "type": "uint256"
        }
      ],
      "name": "Approval",
      "type": "event"
    },
    {
      "anonymous": false,
      "inputs": [
        {
          "indexed": true,
          "internalType": "address",
          "name": "owner",
          "type": "address"
        },
        {
          "indexed": true,
          "internalType": "address",
          "name": "operator",
          "type": "address"
        },
        {
          "indexed": false,
          "internalType": "bool",
          "name": "approved",
          "type": "bool"
        }
      ],
      "name": "ApprovalForAll",
      "type": "event"
    },
    {
      "anonymous": false,
      "inputs": [
        {
          "indexed": true,
          "internalType": "uint256",
          "name": "fromTokenId",
          "type": "uint256"
        },
        {
          "indexed": false,
          "internalType": "uint256",
          "name": "toTokenId",
          "type": "uint256"
        },
        {
          "indexed": true,
          "internalType": "address",
          "name": "from",
          "type": "address"
        },
        {
          "indexed": true,
          "internalType": "address",
          "name": "to",
          "type": "address"
        }
      ],
      "name": "ConsecutiveTransfer",
      "type": "event"
    },
    {
      "anonymous": false,
      "inputs": [
        {
          "indexed": true,
          "internalType": "address",
          "name": "previousOwner",
          "type": "address"
        },
        {
          "indexed": true,
          "internalType": "address",
          "name": "newOwner",
          "type": "address"
        }
      ],
      "name": "OwnershipTransferred",
      "type": "event"
    },
    {
      "anonymous": false,
      "inputs": [
        {
          "indexed": true,
          "internalType": "address",
          "name": "from",
          "type": "address"
        },
        {
          "indexed": true,
          "internalType": "address",
          "name": "to",
          "type": "address"
        },
        {
          "indexed": true,
          "internalType": "uint256",
          "name": "tokenId",
          "type": "uint256"
        }
      ],
      "name": "Transfer",
      "type": "event"
    },
    {
      "inputs": [],
      "name": "OPERATOR_FILTER_REGISTRY",
      "outputs": [
        {
          "internalType": "contract IOperatorFilterRegistry",
          "name": "",
          "type": "address"
        }
      ],
      "stateMutability": "view",
      "type": "function"
    },
    {
      "inputs": [
        {
          "internalType": "address",
          "name": "operator",
          "type": "address"
        },
        {
          "internalType": "uint256",
          "name": "tokenId",
          "type": "uint256"
        }
      ],
      "name": "approve",
      "outputs": [],
      "stateMutability": "payable",
      "type": "function"
    },
    {
      "inputs": [
        {
          "internalType": "address",
          "name": "owner",
          "type": "address"
        }
      ],
      "name": "balanceOf",
      "outputs": [
        {
          "internalType": "uint256",
          "name": "",
          "type": "uint256"
        }
      ],
      "stateMutability": "view",
      "type": "function"
    },
    {
      "inputs": [
        {
          "internalType": "address[]",
          "name": "_to",
          "type": "address[]"
        }
      ],
      "name": "bulkMint",
      "outputs": [],
      "stateMutability": "nonpayable",
      "type": "function"
    },
    {
      "inputs": [
        {
          "internalType": "uint256",
          "name": "tokenId",
          "type": "uint256"
        }
      ],
      "name": "explicitOwnershipOf",
      "outputs": [
        {
          "components": [
            {
              "internalType": "address",
              "name": "addr",
              "type": "address"
            },
            {
              "internalType": "uint64",
              "name": "startTimestamp",
              "type": "uint64"
            },
            {
              "internalType": "bool",
              "name": "burned",
              "type": "bool"
            },
            {
              "internalType": "uint24",
              "name": "extraData",
              "type": "uint24"
            }
          ],
          "internalType": "struct IERC721A.TokenOwnership",
          "name": "",
          "type": "tuple"
        }
      ],
      "stateMutability": "view",
      "type": "function"
    },
    {
      "inputs": [
        {
          "internalType": "uint256[]",
          "name": "tokenIds",
          "type": "uint256[]"
        }
      ],
      "name": "explicitOwnershipsOf",
      "outputs": [
        {
          "components": [
            {
              "internalType": "address",
              "name": "addr",
              "type": "address"
            },
            {
              "internalType": "uint64",
              "name": "startTimestamp",
              "type": "uint64"
            },
            {
              "internalType": "bool",
              "name": "burned",
              "type": "bool"
            },
            {
              "internalType": "uint24",
              "name": "extraData",
              "type": "uint24"
            }
          ],
          "internalType": "struct IERC721A.TokenOwnership[]",
          "name": "",
          "type": "tuple[]"
        }
      ],
      "stateMutability": "view",
      "type": "function"
    },
    {
      "inputs": [
        {
          "internalType": "uint256",
          "name": "tokenId",
          "type": "uint256"
        }
      ],
      "name": "getApproved",
      "outputs": [
        {
          "internalType": "address",
          "name": "",
          "type": "address"
        }
      ],
      "stateMutability": "view",
      "type": "function"
    },
    {
      "inputs": [],
      "name": "goldenTicketAddress",
      "outputs": [
        {
          "internalType": "address",
          "name": "",
          "type": "address"
        }
      ],
      "stateMutability": "view",
      "type": "function"
    },
    {
      "inputs": [
        {
          "internalType": "address",
          "name": "owner",
          "type": "address"
        },
        {
          "internalType": "address",
          "name": "operator",
          "type": "address"
        }
      ],
      "name": "isApprovedForAll",
      "outputs": [
        {
          "internalType": "bool",
          "name": "",
          "type": "bool"
        }
      ],
      "stateMutability": "view",
      "type": "function"
    },
    {
      "inputs": [],
      "name": "m_baseURI",
      "outputs": [
        {
          "internalType": "string",
          "name": "",
          "type": "string"
        }
      ],
      "stateMutability": "view",
      "type": "function"
    },
    {
      "inputs": [
        {
          "internalType": "address",
          "name": "to",
          "type": "address"
        }
      ],
      "name": "mint",
      "outputs": [],
      "stateMutability": "nonpayable",
      "type": "function"
    },
    {
      "inputs": [],
      "name": "name",
      "outputs": [
        {
          "internalType": "string",
          "name": "",
          "type": "string"
        }
      ],
      "stateMutability": "view",
      "type": "function"
    },
    {
      "inputs": [],
      "name": "owner",
      "outputs": [
        {
          "internalType": "address",
          "name": "",
          "type": "address"
        }
      ],
      "stateMutability": "view",
      "type": "function"
    },
    {
      "inputs": [
        {
          "internalType": "uint256",
          "name": "tokenId",
          "type": "uint256"
        }
      ],
      "name": "ownerOf",
      "outputs": [
        {
          "internalType": "address",
          "name": "",
          "type": "address"
        }
      ],
      "stateMutability": "view",
      "type": "function"
    },
    {
      "inputs": [],
      "name": "renounceOwnership",
      "outputs": [],
      "stateMutability": "nonpayable",
      "type": "function"
    },
    {
      "inputs": [
        {
          "internalType": "uint256",
          "name": "_tokenId",
          "type": "uint256"
        },
        {
          "internalType": "uint256",
          "name": "_salePrice",
          "type": "uint256"
        }
      ],
      "name": "royaltyInfo",
      "outputs": [
        {
          "internalType": "address",
          "name": "",
          "type": "address"
        },
        {
          "internalType": "uint256",
          "name": "",
          "type": "uint256"
        }
      ],
      "stateMutability": "view",
      "type": "function"
    },
    {
      "inputs": [
        {
          "internalType": "address",
          "name": "from",
          "type": "address"
        },
        {
          "internalType": "address",
          "name": "to",
          "type": "address"
        },
        {
          "internalType": "uint256",
          "name": "tokenId",
          "type": "uint256"
        }
      ],
      "name": "safeTransferFrom",
      "outputs": [],
      "stateMutability": "payable",
      "type": "function"
    },
    {
      "inputs": [
        {
          "internalType": "address",
          "name": "from",
          "type": "address"
        },
        {
          "internalType": "address",
          "name": "to",
          "type": "address"
        },
        {
          "internalType": "uint256",
          "name": "tokenId",
          "type": "uint256"
        },
        {
          "internalType": "bytes",
          "name": "data",
          "type": "bytes"
        }
      ],
      "name": "safeTransferFrom",
      "outputs": [],
      "stateMutability": "payable",
      "type": "function"
    },
    {
      "inputs": [
        {
          "internalType": "address",
          "name": "operator",
          "type": "address"
        },
        {
          "internalType": "bool",
          "name": "approved",
          "type": "bool"
        }
      ],
      "name": "setApprovalForAll",
      "outputs": [],
      "stateMutability": "nonpayable",
      "type": "function"
    },
    {
      "inputs": [
        {
          "internalType": "string",
          "name": "newBaseURI",
          "type": "string"
        }
      ],
      "name": "setBaseURI",
      "outputs": [],
      "stateMutability": "nonpayable",
      "type": "function"
    },
    {
      "inputs": [
        {
          "internalType": "address",
          "name": "feeReceiver",
          "type": "address"
        },
        {
          "internalType": "uint96",
          "name": "feeBasis",
          "type": "uint96"
        }
      ],
      "name": "setDefaultRoyalty",
      "outputs": [],
      "stateMutability": "nonpayable",
      "type": "function"
    },
    {
      "inputs": [
        {
          "internalType": "address",
          "name": "_goldenTicketAddress",
          "type": "address"
        }
      ],
      "name": "setGoldenTicketAddress",
      "outputs": [],
      "stateMutability": "nonpayable",
      "type": "function"
    },
    {
      "inputs": [
        {
          "internalType": "bytes4",
          "name": "interfaceID",
          "type": "bytes4"
        }
      ],
      "name": "supportsInterface",
      "outputs": [
        {
          "internalType": "bool",
          "name": "",
          "type": "bool"
        }
      ],
      "stateMutability": "view",
      "type": "function"
    },
    {
      "inputs": [],
      "name": "symbol",
      "outputs": [
        {
          "internalType": "string",
          "name": "",
          "type": "string"
        }
      ],
      "stateMutability": "view",
      "type": "function"
    },
    {
      "inputs": [
        {
          "internalType": "uint256",
          "name": "tokenId",
          "type": "uint256"
        }
      ],
      "name": "tokenURI",
      "outputs": [
        {
          "internalType": "string",
          "name": "",
          "type": "string"
        }
      ],
      "stateMutability": "view",
      "type": "function"
    },
    {
      "inputs": [
        {
          "internalType": "address",
          "name": "owner",
          "type": "address"
        }
      ],
      "name": "tokensOfOwner",
      "outputs": [
        {
          "internalType": "uint256[]",
          "name": "",
          "type": "uint256[]"
        }
      ],
      "stateMutability": "view",
      "type": "function"
    },
    {
      "inputs": [
        {
          "internalType": "address",
          "name": "owner",
          "type": "address"
        },
        {
          "internalType": "uint256",
          "name": "start",
          "type": "uint256"
        },
        {
          "internalType": "uint256",
          "name": "stop",
          "type": "uint256"
        }
      ],
      "name": "tokensOfOwnerIn",
      "outputs": [
        {
          "internalType": "uint256[]",
          "name": "",
          "type": "uint256[]"
        }
      ],
      "stateMutability": "view",
      "type": "function"
    },
    {
      "inputs": [],
      "name": "totalSupply",
      "outputs": [
        {
          "internalType": "uint256",
          "name": "",
          "type": "uint256"
        }
      ],
      "stateMutability": "view",
      "type": "function"
    },
    {
      "inputs": [
        {
          "internalType": "address",
          "name": "from",
          "type": "address"
        },
        {
          "internalType": "address",
          "name": "to",
          "type": "address"
        },
        {
          "internalType": "uint256",
          "name": "tokenId",
          "type": "uint256"
        }
      ],
      "name": "transferFrom",
      "outputs": [],
      "stateMutability": "payable",
      "type": "function"
    },
    {
      "inputs": [
        {
          "internalType": "address",
          "name": "newOwner",
          "type": "address"
        }
      ],
      "name": "transferOwnership",
      "outputs": [],
      "stateMutability": "nonpayable",
      "type": "function"
    },
    {
      "inputs": [],
      "name": "withdraw",
      "outputs": [],
      "stateMutability": "nonpayable",
      "type": "function"
    },
    {
      "stateMutability": "payable",
      "type": "receive"
    }
  ],
  "bytecode": "0x60806040523480156200001157600080fd5b5060405162002dd938038062002dd9833981016040819052620000349162000448565b6040518060400160405280601e81526020017f476f6c64656e2048756e6e79205469636b6574202852656465656d65642900008152506040518060400160405280601581526020017f474f4c44454e5449434b45542d52454445454d45440000000000000000000000815250836101f4733cc6cdda760b79bafa08df41ecfa224f810dceb6600185858160029081620000ce9190620005cd565b506003620000dd8282620005cd565b5050600160005550620000f03362000261565b6daaeb6d7670e522a718067333cd4e3b15620002355780156200018357604051633e9f1edf60e11b81523060048201526001600160a01b03831660248201526daaeb6d7670e522a718067333cd4e90637d3e3dbe906044015b600060405180830381600087803b1580156200016457600080fd5b505af115801562000179573d6000803e3d6000fd5b5050505062000235565b6001600160a01b03821615620001d45760405163a0af290360e01b81523060048201526001600160a01b03831660248201526daaeb6d7670e522a718067333cd4e9063a0af29039060440162000149565b604051632210724360e11b81523060048201526daaeb6d7670e522a718067333cd4e90634420e48690602401600060405180830381600087803b1580156200021b57600080fd5b505af115801562000230573d6000803e3d6000fd5b505050505b506200024490508282620002b3565b505050506200025981620003b860201b60201c565b505062000699565b600880546001600160a01b038381166001600160a01b0319831681179093556040519116919082907f8be0079c531659141344cd1fd0a4f28419497f9722a3daafe3b4186f6b6457e090600090a35050565b6127106001600160601b0382161115620003275760405162461bcd60e51b815260206004820152602a60248201527f455243323938313a20726f79616c7479206665652077696c6c206578636565646044820152692073616c65507269636560b01b60648201526084015b60405180910390fd5b6001600160a01b0382166200037f5760405162461bcd60e51b815260206004820152601960248201527f455243323938313a20696e76616c69642072656365697665720000000000000060448201526064016200031e565b604080518082019091526001600160a01b039092168083526001600160601b039091166020909201829052600160a01b90910217600955565b620003c2620003d4565b600b620003d08282620005cd565b5050565b6008546001600160a01b03163314620004305760405162461bcd60e51b815260206004820181905260248201527f4f776e61626c653a2063616c6c6572206973206e6f7420746865206f776e657260448201526064016200031e565b565b634e487b7160e01b600052604160045260246000fd5b600080604083850312156200045c57600080fd5b82516001600160a01b03811681146200047457600080fd5b602084810151919350906001600160401b03808211156200049457600080fd5b818601915086601f830112620004a957600080fd5b815181811115620004be57620004be62000432565b604051601f8201601f19908116603f01168101908382118183101715620004e957620004e962000432565b8160405282815289868487010111156200050257600080fd5b600093505b8284101562000526578484018601518185018701529285019262000507565b60008684830101528096505050505050509250929050565b600181811c908216806200055357607f821691505b6020821081036200057457634e487b7160e01b600052602260045260246000fd5b50919050565b601f821115620005c857600081815260208120601f850160051c81016020861015620005a35750805b601f850160051c820191505b81811015620005c457828155600101620005af565b5050505b505050565b81516001600160401b03811115620005e957620005e962000432565b6200060181620005fa84546200053e565b846200057a565b602080601f831160018114620006395760008415620006205750858301515b600019600386901b1c1916600185901b178555620005c4565b600085815260208120601f198616915b828110156200066a5788860151825594840194600190910190840162000649565b5085821015620006895787850151600019600388901b60f8161c191681555b5050505050600190811b01905550565b61273080620006a96000396000f3fe6080604052600436106101dc5760003560e01c80636352211e1161010257806399a2557a11610095578063c87b56dd11610064578063c87b56dd14610566578063c8bd701814610586578063e985e9c5146105a6578063f2fde38b146105ef57600080fd5b806399a2557a146104e6578063a22cb46514610506578063b88d4fde14610526578063c23dc68f1461053957600080fd5b806375bf9707116100d157806375bf9707146104665780638462151c146104865780638da5cb5b146104b357806395d89b41146104d157600080fd5b80636352211e146103f15780636a6278421461041157806370a0823114610431578063715018a61461045157600080fd5b80632a55205a1161017a57806341f434341161014957806341f434341461036f57806342842e0e1461039157806355f804b3146103a45780635bbb2177146103c457600080fd5b80632a55205a146102e6578063359bccf4146103255780633771aaa11461033a5780633ccfd60b1461035a57600080fd5b8063081812fc116101b6578063081812fc14610261578063095ea7b31461029957806318160ddd146102ac57806323b872dd146102d357600080fd5b806301ffc9a7146101e857806304634d8d1461021d57806306fdde031461023f57600080fd5b366101e357005b600080fd5b3480156101f457600080fd5b50610208610203366004611e51565b61060f565b60405190151581526020015b60405180910390f35b34801561022957600080fd5b5061023d610238366004611e8a565b61066b565b005b34801561024b57600080fd5b50610254610681565b6040516102149190611f22565b34801561026d57600080fd5b5061028161027c366004611f35565b610713565b6040516001600160a01b039091168152602001610214565b61023d6102a7366004611f4e565b610770565b3480156102b857600080fd5b5060015460005403600019015b604051908152602001610214565b61023d6102e1366004611f78565b610789565b3480156102f257600080fd5b50610306610301366004611fb4565b6107b4565b604080516001600160a01b039093168352602083019190915201610214565b34801561033157600080fd5b50610254610891565b34801561034657600080fd5b5061023d610355366004612036565b61091f565b34801561036657600080fd5b5061023d610969565b34801561037b57600080fd5b506102816daaeb6d7670e522a718067333cd4e81565b61023d61039f366004611f78565b6109b7565b3480156103b057600080fd5b5061023d6103bf36600461213b565b6109dc565b3480156103d057600080fd5b506103e46103df366004612184565b6109f0565b60405161021491906121f9565b3480156103fd57600080fd5b5061028161040c366004611f35565b610abc565b34801561041d57600080fd5b5061023d61042c366004612276565b610ac7565b34801561043d57600080fd5b506102c561044c366004612276565b610b74565b34801561045d57600080fd5b5061023d610bdc565b34801561047257600080fd5b50600c54610281906001600160a01b031681565b34801561049257600080fd5b506104a66104a1366004612276565b610bf0565b6040516102149190612291565b3480156104bf57600080fd5b506008546001600160a01b0316610281565b3480156104dd57600080fd5b50610254610cf4565b3480156104f257600080fd5b506104a66105013660046122c9565b610d03565b34801561051257600080fd5b5061023d61052136600461230a565b610ea4565b61023d610534366004612336565b610eb8565b34801561054557600080fd5b50610559610554366004611f35565b610ee5565b60405161021491906123b2565b34801561057257600080fd5b50610254610581366004611f35565b610f6d565b34801561059257600080fd5b5061023d6105a1366004612276565b611009565b3480156105b257600080fd5b506102086105c13660046123f7565b6001600160a01b03918216600090815260076020908152604080832093909416825291909152205460ff1690565b3480156105fb57600080fd5b5061023d61060a366004612276565b61104b565b60007fffffffff0000000000000000000000000000000000000000000000000000000082167f8446a79e0000000000000000000000000000000000000000000000000000000014806106655750610665826110f2565b92915050565b610673611189565b61067d82826111fd565b5050565b6060600280546106909061242a565b80601f01602080910402602001604051908101604052809291908181526020018280546106bc9061242a565b80156107095780601f106106de57610100808354040283529160200191610709565b820191906000526020600020905b8154815290600101906020018083116106ec57829003601f168201915b5050505050905090565b600061071e8261135c565b610754576040517fcf4700e400000000000000000000000000000000000000000000000000000000815260040160405180910390fd5b506000908152600660205260409020546001600160a01b031690565b8161077a816113aa565b6107848383611495565b505050565b826001600160a01b03811633146107a3576107a3336113aa565b6107ae848484611566565b50505050565b6000828152600a602090815260408083208151808301909252546001600160a01b038116808352740100000000000000000000000000000000000000009091046bffffffffffffffffffffffff169282019290925282916108555750604080518082019091526009546001600160a01b03811682527401000000000000000000000000000000000000000090046bffffffffffffffffffffffff1660208201525b602081015160009061271090610879906bffffffffffffffffffffffff16876124ac565b61088391906124cb565b915196919550909350505050565b600b805461089e9061242a565b80601f01602080910402602001604051908101604052809291908181526020018280546108ca9061242a565b80156109175780601f106108ec57610100808354040283529160200191610917565b820191906000526020600020905b8154815290600101906020018083116108fa57829003601f168201915b505050505081565b610927611189565b60005b815181101561067d5761095782828151811061094857610948612506565b6020026020010151600161178a565b8061096181612535565b91505061092a565b610971611189565b600061097e6000806107b4565b506040519091506001600160a01b038216904780156108fc02916000818181858888f1935050505015801561067d573d6000803e3d6000fd5b826001600160a01b03811633146109d1576109d1336113aa565b6107ae8484846118c8565b6109e4611189565b600b61067d8282612595565b60608160008167ffffffffffffffff811115610a0e57610a0e611fd6565b604051908082528060200260200182016040528015610a6057816020015b604080516080810182526000808252602080830182905292820181905260608201528252600019909201910181610a2c5790505b50905060005b828114610ab357610a8e868683818110610a8257610a82612506565b90506020020135610ee5565b828281518110610aa057610aa0612506565b6020908102919091010152600101610a66565b50949350505050565b6000610665826118e3565b600c546001600160a01b03163314610b66576040517f08c379a000000000000000000000000000000000000000000000000000000000815260206004820152603760248201527f476f6c64656e5469636b65743a204f6e6c7920476f6c64656e5469636b65742060448201527f63616e2063616c6c20746869732066756e6374696f6e2e00000000000000000060648201526084015b60405180910390fd5b610b7181600161178a565b50565b60006001600160a01b038216610bb6576040517f8f4eb60400000000000000000000000000000000000000000000000000000000815260040160405180910390fd5b506001600160a01b031660009081526005602052604090205467ffffffffffffffff1690565b610be4611189565b610bee6000611984565b565b60606000806000610c0085610b74565b905060008167ffffffffffffffff811115610c1d57610c1d611fd6565b604051908082528060200260200182016040528015610c46578160200160208202803683370190505b5060408051608081018252600080825260208201819052918101829052606081019190915290915060015b838614610ce857610c81816119ee565b91508160400151610ce05781516001600160a01b031615610ca157815194505b876001600160a01b0316856001600160a01b031603610ce05780838780600101985081518110610cd357610cd3612506565b6020026020010181815250505b600101610c71565b50909695505050505050565b6060600380546106909061242a565b6060818310610d3e576040517f32c1995a00000000000000000000000000000000000000000000000000000000815260040160405180910390fd5b600080610d4a60005490565b90506001851015610d5a57600194505b80841115610d66578093505b6000610d7187610b74565b905084861015610d905785850381811015610d8a578091505b50610d94565b5060005b60008167ffffffffffffffff811115610daf57610daf611fd6565b604051908082528060200260200182016040528015610dd8578160200160208202803683370190505b50905081600003610dee579350610e9d92505050565b6000610df988610ee5565b905060008160400151610e0a575080515b885b888114158015610e1c5750848714155b15610e9157610e2a816119ee565b92508260400151610e895782516001600160a01b031615610e4a57825191505b8a6001600160a01b0316826001600160a01b031603610e895780848880600101995081518110610e7c57610e7c612506565b6020026020010181815250505b600101610e0c565b50505092835250909150505b9392505050565b81610eae816113aa565b6107848383611a86565b836001600160a01b0381163314610ed257610ed2336113aa565b610ede85858585611b10565b5050505050565b6040805160808101825260008082526020820181905291810182905260608101919091526040805160808101825260008082526020820181905291810182905260608101919091526001831080610f3e57506000548310155b15610f495792915050565b610f52836119ee565b9050806040015115610f645792915050565b610e9d83611b6d565b6060610f788261135c565b610fae576040517fa14c4b5000000000000000000000000000000000000000000000000000000000815260040160405180910390fd5b6000610fb8611bfe565b90508051600003610fd85760405180602001604052806000815250610e9d565b80610fe284611c0d565b604051602001610ff3929190612655565b6040516020818303038152906040529392505050565b611011611189565b600c80547fffffffffffffffffffffffff0000000000000000000000000000000000000000166001600160a01b0392909216919091179055565b611053611189565b6001600160a01b0381166110e9576040517f08c379a000000000000000000000000000000000000000000000000000000000815260206004820152602660248201527f4f776e61626c653a206e6577206f776e657220697320746865207a65726f206160448201527f64647265737300000000000000000000000000000000000000000000000000006064820152608401610b5d565b610b7181611984565b60007fffffffff0000000000000000000000000000000000000000000000000000000082167f2a55205a00000000000000000000000000000000000000000000000000000000148061066557507f01ffc9a7000000000000000000000000000000000000000000000000000000007fffffffff00000000000000000000000000000000000000000000000000000000831614610665565b6008546001600160a01b03163314610bee576040517f08c379a000000000000000000000000000000000000000000000000000000000815260206004820181905260248201527f4f776e61626c653a2063616c6c6572206973206e6f7420746865206f776e65726044820152606401610b5d565b6127106bffffffffffffffffffffffff8216111561129d576040517f08c379a000000000000000000000000000000000000000000000000000000000815260206004820152602a60248201527f455243323938313a20726f79616c7479206665652077696c6c2065786365656460448201527f2073616c655072696365000000000000000000000000000000000000000000006064820152608401610b5d565b6001600160a01b03821661130d576040517f08c379a000000000000000000000000000000000000000000000000000000000815260206004820152601960248201527f455243323938313a20696e76616c6964207265636569766572000000000000006044820152606401610b5d565b604080518082019091526001600160a01b039092168083526bffffffffffffffffffffffff90911660209092018290527401000000000000000000000000000000000000000090910217600955565b600081600111158015611370575060005482105b80156106655750506000908152600460205260409020547c0100000000000000000000000000000000000000000000000000000000161590565b6daaeb6d7670e522a718067333cd4e3b15610b71576040517fc61711340000000000000000000000000000000000000000000000000000000081523060048201526001600160a01b03821660248201526daaeb6d7670e522a718067333cd4e9063c617113490604401602060405180830381865afa158015611430573d6000803e3d6000fd5b505050506040513d601f19601f820116820180604052508101906114549190612684565b610b71576040517fede71dcc0000000000000000000000000000000000000000000000000000000081526001600160a01b0382166004820152602401610b5d565b60006114a082610abc565b9050336001600160a01b038216146114f2576114bc81336105c1565b6114f2576040517fcfb3b94200000000000000000000000000000000000000000000000000000000815260040160405180910390fd5b60008281526006602052604080822080547fffffffffffffffffffffffff0000000000000000000000000000000000000000166001600160a01b0387811691821790925591518593918516917f8c5be1e5ebec7d5bd14f71427d1e84f3dd0314c0f7b2291e5b200ac8c7c3b92591a4505050565b6000611571826118e3565b9050836001600160a01b0316816001600160a01b0316146115be576040517fa114810000000000000000000000000000000000000000000000000000000000815260040160405180910390fd5b60008281526006602052604090208054338082146001600160a01b03881690911417611624576115ee86336105c1565b611624576040517f59c896be00000000000000000000000000000000000000000000000000000000815260040160405180910390fd5b6001600160a01b038516611664576040517fea553b3400000000000000000000000000000000000000000000000000000000815260040160405180910390fd5b6116718686866001611c51565b801561167c57600082555b6001600160a01b038681166000908152600560205260408082208054600019019055918716808252919020805460010190554260a01b177c0200000000000000000000000000000000000000000000000000000000176000858152600460205260408120919091557c0200000000000000000000000000000000000000000000000000000000841690036117405760018401600081815260046020526040812054900361173e57600054811461173e5760008181526004602052604090208490555b505b83856001600160a01b0316876001600160a01b03167fddf252ad1be2c89b69c2b068fc378daa952ba7f163c4a11628f55a4df523b3ef60405160405180910390a45b505050505050565b60008054908290036117c8576040517fb562e8dd00000000000000000000000000000000000000000000000000000000815260040160405180910390fd5b6117d56000848385611c51565b6001600160a01b03831660008181526005602090815260408083208054680100000000000000018802019055848352600490915281206001851460e11b4260a01b178317905582840190839083907fddf252ad1be2c89b69c2b068fc378daa952ba7f163c4a11628f55a4df523b3ef8180a4600183015b81811461188457808360007fddf252ad1be2c89b69c2b068fc378daa952ba7f163c4a11628f55a4df523b3ef600080a460010161184c565b50816000036118bf576040517f2e07630000000000000000000000000000000000000000000000000000000000815260040160405180910390fd5b60005550505050565b61078483838360405180602001604052806000815250610eb8565b600081806001116119525760005481101561195257600081815260046020526040812054907c010000000000000000000000000000000000000000000000000000000082169003611950575b80600003610e9d57506000190160008181526004602052604090205461192f565b505b6040517fdf2d9b4200000000000000000000000000000000000000000000000000000000815260040160405180910390fd5b600880546001600160a01b038381167fffffffffffffffffffffffff0000000000000000000000000000000000000000831681179093556040519116919082907f8be0079c531659141344cd1fd0a4f28419497f9722a3daafe3b4186f6b6457e090600090a35050565b60408051608081018252600080825260208201819052918101829052606081019190915260008281526004602052604090205461066590604080516080810182526001600160a01b038316815260a083901c67ffffffffffffffff1660208201527c0100000000000000000000000000000000000000000000000000000000831615159181019190915260e89190911c606082015290565b3360008181526007602090815260408083206001600160a01b0387168085529083529281902080547fffffffffffffffffffffffffffffffffffffffffffffffffffffffffffffff001686151590811790915590519081529192917f17307eab39ab6107e8899845ad3d59bd9653f200f220920489ca2b5937696c31910160405180910390a35050565b611b1b848484610789565b6001600160a01b0383163b156107ae57611b3784848484611cd4565b6107ae576040517fd1a57ed600000000000000000000000000000000000000000000000000000000815260040160405180910390fd5b604080516080810182526000808252602082018190529181018290526060810191909152610665611b9d836118e3565b604080516080810182526001600160a01b038316815260a083901c67ffffffffffffffff1660208201527c0100000000000000000000000000000000000000000000000000000000831615159181019190915260e89190911c606082015290565b6060600b80546106909061242a565b606060a06040510180604052602081039150506000815280825b600183039250600a81066030018353600a900480611c275750819003601f19909101908152919050565b6001600160a01b0384161580611c6e57506001600160a01b038316155b6107ae576040517f08c379a000000000000000000000000000000000000000000000000000000000815260206004820152601860248201527f476f6c64656e5469636b65743a20536f756c2d626f756e6400000000000000006044820152606401610b5d565b6040517f150b7a020000000000000000000000000000000000000000000000000000000081526000906001600160a01b0385169063150b7a0290611d229033908990889088906004016126a1565b6020604051808303816000875af1925050508015611d5d575060408051601f3d908101601f19168201909252611d5a918101906126dd565b60015b611dd4573d808015611d8b576040519150601f19603f3d011682016040523d82523d6000602084013e611d90565b606091505b508051600003611dcc576040517fd1a57ed600000000000000000000000000000000000000000000000000000000815260040160405180910390fd5b805181602001fd5b7fffffffff00000000000000000000000000000000000000000000000000000000167f150b7a02000000000000000000000000000000000000000000000000000000001490505b949350505050565b7fffffffff0000000000000000000000000000000000000000000000000000000081168114610b7157600080fd5b600060208284031215611e6357600080fd5b8135610e9d81611e23565b80356001600160a01b0381168114611e8557600080fd5b919050565b60008060408385031215611e9d57600080fd5b611ea683611e6e565b915060208301356bffffffffffffffffffffffff81168114611ec757600080fd5b809150509250929050565b60005b83811015611eed578181015183820152602001611ed5565b50506000910152565b60008151808452611f0e816020860160208601611ed2565b601f01601f19169290920160200192915050565b602081526000610e9d6020830184611ef6565b600060208284031215611f4757600080fd5b5035919050565b60008060408385031215611f6157600080fd5b611f6a83611e6e565b946020939093013593505050565b600080600060608486031215611f8d57600080fd5b611f9684611e6e565b9250611fa460208501611e6e565b9150604084013590509250925092565b60008060408385031215611fc757600080fd5b50508035926020909101359150565b7f4e487b7100000000000000000000000000000000000000000000000000000000600052604160045260246000fd5b604051601f8201601f1916810167ffffffffffffffff8111828210171561202e5761202e611fd6565b604052919050565b6000602080838503121561204957600080fd5b823567ffffffffffffffff8082111561206157600080fd5b818501915085601f83011261207557600080fd5b81358181111561208757612087611fd6565b8060051b9150612098848301612005565b81815291830184019184810190888411156120b257600080fd5b938501935b838510156120d7576120c885611e6e565b825293850193908501906120b7565b98975050505050505050565b600067ffffffffffffffff8311156120fd576120fd611fd6565b6121106020601f19601f86011601612005565b905082815283838301111561212457600080fd5b828260208301376000602084830101529392505050565b60006020828403121561214d57600080fd5b813567ffffffffffffffff81111561216457600080fd5b8201601f8101841361217557600080fd5b611e1b848235602084016120e3565b6000806020838503121561219757600080fd5b823567ffffffffffffffff808211156121af57600080fd5b818501915085601f8301126121c357600080fd5b8135818111156121d257600080fd5b8660208260051b85010111156121e757600080fd5b60209290920196919550909350505050565b6020808252825182820181905260009190848201906040850190845b81811015610ce8576122638385516001600160a01b03815116825267ffffffffffffffff602082015116602083015260408101511515604083015262ffffff60608201511660608301525050565b9284019260809290920191600101612215565b60006020828403121561228857600080fd5b610e9d82611e6e565b6020808252825182820181905260009190848201906040850190845b81811015610ce8578351835292840192918401916001016122ad565b6000806000606084860312156122de57600080fd5b6122e784611e6e565b95602085013595506040909401359392505050565b8015158114610b7157600080fd5b6000806040838503121561231d57600080fd5b61232683611e6e565b91506020830135611ec7816122fc565b6000806000806080858703121561234c57600080fd5b61235585611e6e565b935061236360208601611e6e565b925060408501359150606085013567ffffffffffffffff81111561238657600080fd5b8501601f8101871361239757600080fd5b6123a6878235602084016120e3565b91505092959194509250565b81516001600160a01b0316815260208083015167ffffffffffffffff169082015260408083015115159082015260608083015162ffffff169082015260808101610665565b6000806040838503121561240a57600080fd5b61241383611e6e565b915061242160208401611e6e565b90509250929050565b600181811c9082168061243e57607f821691505b602082108103612477577f4e487b7100000000000000000000000000000000000000000000000000000000600052602260045260246000fd5b50919050565b7f4e487b7100000000000000000000000000000000000000000000000000000000600052601160045260246000fd5b60008160001904831182151516156124c6576124c661247d565b500290565b600082612501577f4e487b7100000000000000000000000000000000000000000000000000000000600052601260045260246000fd5b500490565b7f4e487b7100000000000000000000000000000000000000000000000000000000600052603260045260246000fd5b600060001982036125485761254861247d565b5060010190565b601f82111561078457600081815260208120601f850160051c810160208610156125765750805b601f850160051c820191505b8181101561178257828155600101612582565b815167ffffffffffffffff8111156125af576125af611fd6565b6125c3816125bd845461242a565b8461254f565b602080601f8311600181146125f857600084156125e05750858301515b600019600386901b1c1916600185901b178555611782565b600085815260208120601f198616915b8281101561262757888601518255948401946001909101908401612608565b50858210156126455787850151600019600388901b60f8161c191681555b5050505050600190811b01905550565b60008351612667818460208801611ed2565b83519083019061267b818360208801611ed2565b01949350505050565b60006020828403121561269657600080fd5b8151610e9d816122fc565b60006001600160a01b038087168352808616602084015250836040830152608060608301526126d36080830184611ef6565b9695505050505050565b6000602082840312156126ef57600080fd5b8151610e9d81611e2356fea264697066735822122045b8d8829102ec801c16f543c869fa380150ad3ad5e8addbefbcb91cb491d9bd64736f6c63430008100033",
  "linkReferences": {},
  "deployedLinkReferences": {}
}