{
  "_format": "hh-sol-artifact-1",
  "contractName": "GoldenTicket",
  "sourceName": "contracts/GoldenTicket.sol",
  "abi": [
    {
      "inputs": [
        {
          "internalType": "address",
          "name": "feeReceiver",
          "type": "address"
        },
        {
          "internalType": "uint96",
          "name": "feeBasisPoints",
          "type": "uint96"
        },
        {
          "internalType": "string",
          "name": "baseURI",
          "type": "string"
        }
      ],
      "stateMutability": "nonpayable",
      "type": "constructor"
    },
    {
      "inputs": [],
      "name": "ApprovalCallerNotOwnerNorApproved",
      "type": "error"
    },
    {
      "inputs": [],
      "name": "ApprovalQueryForNonexistentToken",
      "type": "error"
    },
    {
      "inputs": [],
      "name": "BalanceQueryForZeroAddress",
      "type": "error"
    },
    {
      "inputs": [],
      "name": "InvalidQueryRange",
      "type": "error"
    },
    {
      "inputs": [],
      "name": "MintERC2309QuantityExceedsLimit",
      "type": "error"
    },
    {
      "inputs": [],
      "name": "MintToZeroAddress",
      "type": "error"
    },
    {
      "inputs": [],
      "name": "MintZeroQuantity",
      "type": "error"
    },
    {
      "inputs": [
        {
          "internalType": "address",
          "name": "operator",
          "type": "address"
        }
      ],
      "name": "OperatorNotAllowed",
      "type": "error"
    },
    {
      "inputs": [],
      "name": "OwnerQueryForNonexistentToken",
      "type": "error"
    },
    {
      "inputs": [],
      "name": "OwnershipNotInitializedForExtraData",
      "type": "error"
    },
    {
      "inputs": [],
      "name": "TransferCallerNotOwnerNorApproved",
      "type": "error"
    },
    {
      "inputs": [],
      "name": "TransferFromIncorrectOwner",
      "type": "error"
    },
    {
      "inputs": [],
      "name": "TransferToNonERC721ReceiverImplementer",
      "type": "error"
    },
    {
      "inputs": [],
      "name": "TransferToZeroAddress",
      "type": "error"
    },
    {
      "inputs": [],
      "name": "URIQueryForNonexistentToken",
      "type": "error"
    },
    {
      "anonymous": false,
      "inputs": [
        {
          "indexed": true,
          "internalType": "address",
          "name": "owner",
          "type": "address"
        },
        {
          "indexed": true,
          "internalType": "address",
          "name": "approved",
          "type": "address"
        },
        {
          "indexed": true,
          "internalType": "uint256",
          "name": "tokenId",
          "type": "uint256"
        }
      ],
      "name": "Approval",
      "type": "event"
    },
    {
      "anonymous": false,
      "inputs": [
        {
          "indexed": true,
          "internalType": "address",
          "name": "owner",
          "type": "address"
        },
        {
          "indexed": true,
          "internalType": "address",
          "name": "operator",
          "type": "address"
        },
        {
          "indexed": false,
          "internalType": "bool",
          "name": "approved",
          "type": "bool"
        }
      ],
      "name": "ApprovalForAll",
      "type": "event"
    },
    {
      "anonymous": false,
      "inputs": [
        {
          "indexed": true,
          "internalType": "uint256",
          "name": "fromTokenId",
          "type": "uint256"
        },
        {
          "indexed": false,
          "internalType": "uint256",
          "name": "toTokenId",
          "type": "uint256"
        },
        {
          "indexed": true,
          "internalType": "address",
          "name": "from",
          "type": "address"
        },
        {
          "indexed": true,
          "internalType": "address",
          "name": "to",
          "type": "address"
        }
      ],
      "name": "ConsecutiveTransfer",
      "type": "event"
    },
    {
      "anonymous": false,
      "inputs": [
        {
          "indexed": true,
          "internalType": "address",
          "name": "previousOwner",
          "type": "address"
        },
        {
          "indexed": true,
          "internalType": "address",
          "name": "newOwner",
          "type": "address"
        }
      ],
      "name": "OwnershipTransferred",
      "type": "event"
    },
    {
      "anonymous": false,
      "inputs": [
        {
          "indexed": true,
          "internalType": "address",
          "name": "to",
          "type": "address"
        },
        {
          "indexed": true,
          "internalType": "uint256",
          "name": "tokenId",
          "type": "uint256"
        },
        {
          "indexed": false,
          "internalType": "bytes",
          "name": "data",
          "type": "bytes"
        }
      ],
      "name": "Redeemed",
      "type": "event"
    },
    {
      "anonymous": false,
      "inputs": [
        {
          "indexed": true,
          "internalType": "address",
          "name": "to",
          "type": "address"
        },
        {
          "indexed": true,
          "internalType": "uint256",
          "name": "tokenId",
          "type": "uint256"
        },
        {
          "indexed": false,
          "internalType": "bytes",
          "name": "data",
          "type": "bytes"
        }
      ],
      "name": "Redeemed2",
      "type": "event"
    },
    {
      "anonymous": false,
      "inputs": [
        {
          "indexed": true,
          "internalType": "bytes32",
          "name": "role",
          "type": "bytes32"
        },
        {
          "indexed": true,
          "internalType": "bytes32",
          "name": "previousAdminRole",
          "type": "bytes32"
        },
        {
          "indexed": true,
          "internalType": "bytes32",
          "name": "newAdminRole",
          "type": "bytes32"
        }
      ],
      "name": "RoleAdminChanged",
      "type": "event"
    },
    {
      "anonymous": false,
      "inputs": [
        {
          "indexed": true,
          "internalType": "bytes32",
          "name": "role",
          "type": "bytes32"
        },
        {
          "indexed": true,
          "internalType": "address",
          "name": "account",
          "type": "address"
        },
        {
          "indexed": true,
          "internalType": "address",
          "name": "sender",
          "type": "address"
        }
      ],
      "name": "RoleGranted",
      "type": "event"
    },
    {
      "anonymous": false,
      "inputs": [
        {
          "indexed": true,
          "internalType": "bytes32",
          "name": "role",
          "type": "bytes32"
        },
        {
          "indexed": true,
          "internalType": "address",
          "name": "account",
          "type": "address"
        },
        {
          "indexed": true,
          "internalType": "address",
          "name": "sender",
          "type": "address"
        }
      ],
      "name": "RoleRevoked",
      "type": "event"
    },
    {
      "anonymous": false,
      "inputs": [
        {
          "indexed": true,
          "internalType": "address",
          "name": "from",
          "type": "address"
        },
        {
          "indexed": true,
          "internalType": "address",
          "name": "to",
          "type": "address"
        },
        {
          "indexed": true,
          "internalType": "uint256",
          "name": "tokenId",
          "type": "uint256"
        }
      ],
      "name": "Transfer",
      "type": "event"
    },
    {
      "inputs": [],
      "name": "DEFAULT_ADMIN_ROLE",
      "outputs": [
        {
          "internalType": "bytes32",
          "name": "",
          "type": "bytes32"
        }
      ],
      "stateMutability": "view",
      "type": "function"
    },
    {
      "inputs": [],
      "name": "MINT_ROLE",
      "outputs": [
        {
          "internalType": "bytes32",
          "name": "",
          "type": "bytes32"
        }
      ],
      "stateMutability": "view",
      "type": "function"
    },
    {
      "inputs": [],
      "name": "OPERATOR_FILTER_REGISTRY",
      "outputs": [
        {
          "internalType": "contract IOperatorFilterRegistry",
          "name": "",
          "type": "address"
        }
      ],
      "stateMutability": "view",
      "type": "function"
    },
    {
      "inputs": [
        {
          "internalType": "address",
          "name": "operator",
          "type": "address"
        },
        {
          "internalType": "uint256",
          "name": "tokenId",
          "type": "uint256"
        }
      ],
      "name": "approve",
      "outputs": [],
      "stateMutability": "payable",
      "type": "function"
    },
    {
      "inputs": [
        {
          "internalType": "address",
          "name": "owner",
          "type": "address"
        }
      ],
      "name": "balanceOf",
      "outputs": [
        {
          "internalType": "uint256",
          "name": "",
          "type": "uint256"
        }
      ],
      "stateMutability": "view",
      "type": "function"
    },
    {
      "inputs": [
        {
          "internalType": "address[]",
          "name": "_to",
          "type": "address[]"
        }
      ],
      "name": "bulkMint",
      "outputs": [],
      "stateMutability": "nonpayable",
      "type": "function"
    },
    {
      "inputs": [
        {
          "internalType": "uint256",
          "name": "tokenId",
          "type": "uint256"
        }
      ],
      "name": "explicitOwnershipOf",
      "outputs": [
        {
          "components": [
            {
              "internalType": "address",
              "name": "addr",
              "type": "address"
            },
            {
              "internalType": "uint64",
              "name": "startTimestamp",
              "type": "uint64"
            },
            {
              "internalType": "bool",
              "name": "burned",
              "type": "bool"
            },
            {
              "internalType": "uint24",
              "name": "extraData",
              "type": "uint24"
            }
          ],
          "internalType": "struct IERC721A.TokenOwnership",
          "name": "",
          "type": "tuple"
        }
      ],
      "stateMutability": "view",
      "type": "function"
    },
    {
      "inputs": [
        {
          "internalType": "uint256[]",
          "name": "tokenIds",
          "type": "uint256[]"
        }
      ],
      "name": "explicitOwnershipsOf",
      "outputs": [
        {
          "components": [
            {
              "internalType": "address",
              "name": "addr",
              "type": "address"
            },
            {
              "internalType": "uint64",
              "name": "startTimestamp",
              "type": "uint64"
            },
            {
              "internalType": "bool",
              "name": "burned",
              "type": "bool"
            },
            {
              "internalType": "uint24",
              "name": "extraData",
              "type": "uint24"
            }
          ],
          "internalType": "struct IERC721A.TokenOwnership[]",
          "name": "",
          "type": "tuple[]"
        }
      ],
      "stateMutability": "view",
      "type": "function"
    },
    {
      "inputs": [
        {
          "internalType": "uint256",
          "name": "tokenId",
          "type": "uint256"
        }
      ],
      "name": "getApproved",
      "outputs": [
        {
          "internalType": "address",
          "name": "",
          "type": "address"
        }
      ],
      "stateMutability": "view",
      "type": "function"
    },
    {
      "inputs": [
        {
          "internalType": "bytes32",
          "name": "role",
          "type": "bytes32"
        }
      ],
      "name": "getRoleAdmin",
      "outputs": [
        {
          "internalType": "bytes32",
          "name": "",
          "type": "bytes32"
        }
      ],
      "stateMutability": "view",
      "type": "function"
    },
    {
      "inputs": [],
      "name": "goldenTicketRedeemer",
      "outputs": [
        {
          "internalType": "contract GoldenTicketRedeemed",
          "name": "",
          "type": "address"
        }
      ],
      "stateMutability": "view",
      "type": "function"
    },
    {
      "inputs": [
        {
          "internalType": "bytes32",
          "name": "role",
          "type": "bytes32"
        },
        {
          "internalType": "address",
          "name": "account",
          "type": "address"
        }
      ],
      "name": "grantRole",
      "outputs": [],
      "stateMutability": "nonpayable",
      "type": "function"
    },
    {
      "inputs": [
        {
          "internalType": "bytes32",
          "name": "role",
          "type": "bytes32"
        },
        {
          "internalType": "address",
          "name": "account",
          "type": "address"
        }
      ],
      "name": "hasRole",
      "outputs": [
        {
          "internalType": "bool",
          "name": "",
          "type": "bool"
        }
      ],
      "stateMutability": "view",
      "type": "function"
    },
    {
      "inputs": [
        {
          "internalType": "address",
          "name": "owner",
          "type": "address"
        },
        {
          "internalType": "address",
          "name": "operator",
          "type": "address"
        }
      ],
      "name": "isApprovedForAll",
      "outputs": [
        {
          "internalType": "bool",
          "name": "",
          "type": "bool"
        }
      ],
      "stateMutability": "view",
      "type": "function"
    },
    {
      "inputs": [],
      "name": "m_baseURI",
      "outputs": [
        {
          "internalType": "string",
          "name": "",
          "type": "string"
        }
      ],
      "stateMutability": "view",
      "type": "function"
    },
    {
      "inputs": [
        {
          "internalType": "address",
          "name": "to",
          "type": "address"
        }
      ],
      "name": "mint",
      "outputs": [],
      "stateMutability": "nonpayable",
      "type": "function"
    },
    {
      "inputs": [],
      "name": "name",
      "outputs": [
        {
          "internalType": "string",
          "name": "",
          "type": "string"
        }
      ],
      "stateMutability": "view",
      "type": "function"
    },
    {
      "inputs": [],
      "name": "owner",
      "outputs": [
        {
          "internalType": "address",
          "name": "",
          "type": "address"
        }
      ],
      "stateMutability": "view",
      "type": "function"
    },
    {
      "inputs": [
        {
          "internalType": "uint256",
          "name": "tokenId",
          "type": "uint256"
        }
      ],
      "name": "ownerOf",
      "outputs": [
        {
          "internalType": "address",
          "name": "",
          "type": "address"
        }
      ],
      "stateMutability": "view",
      "type": "function"
    },
    {
      "inputs": [
        {
          "internalType": "uint256",
          "name": "tokenId",
          "type": "uint256"
        },
        {
          "internalType": "bytes",
          "name": "data",
          "type": "bytes"
        }
      ],
      "name": "redeem",
      "outputs": [],
      "stateMutability": "nonpayable",
      "type": "function"
    },
    {
      "inputs": [],
      "name": "renounceOwnership",
      "outputs": [],
      "stateMutability": "nonpayable",
      "type": "function"
    },
    {
      "inputs": [
        {
          "internalType": "bytes32",
          "name": "role",
          "type": "bytes32"
        },
        {
          "internalType": "address",
          "name": "account",
          "type": "address"
        }
      ],
      "name": "renounceRole",
      "outputs": [],
      "stateMutability": "nonpayable",
      "type": "function"
    },
    {
      "inputs": [
        {
          "internalType": "bytes32",
          "name": "role",
          "type": "bytes32"
        },
        {
          "internalType": "address",
          "name": "account",
          "type": "address"
        }
      ],
      "name": "revokeRole",
      "outputs": [],
      "stateMutability": "nonpayable",
      "type": "function"
    },
    {
      "inputs": [
        {
          "internalType": "uint256",
          "name": "_tokenId",
          "type": "uint256"
        },
        {
          "internalType": "uint256",
          "name": "_salePrice",
          "type": "uint256"
        }
      ],
      "name": "royaltyInfo",
      "outputs": [
        {
          "internalType": "address",
          "name": "",
          "type": "address"
        },
        {
          "internalType": "uint256",
          "name": "",
          "type": "uint256"
        }
      ],
      "stateMutability": "view",
      "type": "function"
    },
    {
      "inputs": [
        {
          "internalType": "address",
          "name": "from",
          "type": "address"
        },
        {
          "internalType": "address",
          "name": "to",
          "type": "address"
        },
        {
          "internalType": "uint256",
          "name": "tokenId",
          "type": "uint256"
        }
      ],
      "name": "safeTransferFrom",
      "outputs": [],
      "stateMutability": "payable",
      "type": "function"
    },
    {
      "inputs": [
        {
          "internalType": "address",
          "name": "from",
          "type": "address"
        },
        {
          "internalType": "address",
          "name": "to",
          "type": "address"
        },
        {
          "internalType": "uint256",
          "name": "tokenId",
          "type": "uint256"
        },
        {
          "internalType": "bytes",
          "name": "data",
          "type": "bytes"
        }
      ],
      "name": "safeTransferFrom",
      "outputs": [],
      "stateMutability": "payable",
      "type": "function"
    },
    {
      "inputs": [
        {
          "internalType": "address",
          "name": "operator",
          "type": "address"
        },
        {
          "internalType": "bool",
          "name": "approved",
          "type": "bool"
        }
      ],
      "name": "setApprovalForAll",
      "outputs": [],
      "stateMutability": "nonpayable",
      "type": "function"
    },
    {
      "inputs": [
        {
          "internalType": "string",
          "name": "newBaseURI",
          "type": "string"
        }
      ],
      "name": "setBaseURI",
      "outputs": [],
      "stateMutability": "nonpayable",
      "type": "function"
    },
    {
      "inputs": [
        {
          "internalType": "address",
          "name": "feeReceiver",
          "type": "address"
        },
        {
          "internalType": "uint96",
          "name": "feeBasis",
          "type": "uint96"
        }
      ],
      "name": "setDefaultRoyalty",
      "outputs": [],
      "stateMutability": "nonpayable",
      "type": "function"
    },
    {
      "inputs": [
        {
          "internalType": "address payable",
          "name": "_goldenTicketRedeemerAddress",
          "type": "address"
        }
      ],
      "name": "setGoldenTicketRedeemerAddress",
      "outputs": [],
      "stateMutability": "nonpayable",
      "type": "function"
    },
    {
      "inputs": [
        {
          "internalType": "bytes4",
          "name": "interfaceID",
          "type": "bytes4"
        }
      ],
      "name": "supportsInterface",
      "outputs": [
        {
          "internalType": "bool",
          "name": "",
          "type": "bool"
        }
      ],
      "stateMutability": "view",
      "type": "function"
    },
    {
      "inputs": [],
      "name": "symbol",
      "outputs": [
        {
          "internalType": "string",
          "name": "",
          "type": "string"
        }
      ],
      "stateMutability": "view",
      "type": "function"
    },
    {
      "inputs": [
        {
          "internalType": "uint256",
          "name": "tokenId",
          "type": "uint256"
        }
      ],
      "name": "tokenURI",
      "outputs": [
        {
          "internalType": "string",
          "name": "",
          "type": "string"
        }
      ],
      "stateMutability": "view",
      "type": "function"
    },
    {
      "inputs": [
        {
          "internalType": "address",
          "name": "owner",
          "type": "address"
        }
      ],
      "name": "tokensOfOwner",
      "outputs": [
        {
          "internalType": "uint256[]",
          "name": "",
          "type": "uint256[]"
        }
      ],
      "stateMutability": "view",
      "type": "function"
    },
    {
      "inputs": [
        {
          "internalType": "address",
          "name": "owner",
          "type": "address"
        },
        {
          "internalType": "uint256",
          "name": "start",
          "type": "uint256"
        },
        {
          "internalType": "uint256",
          "name": "stop",
          "type": "uint256"
        }
      ],
      "name": "tokensOfOwnerIn",
      "outputs": [
        {
          "internalType": "uint256[]",
          "name": "",
          "type": "uint256[]"
        }
      ],
      "stateMutability": "view",
      "type": "function"
    },
    {
      "inputs": [],
      "name": "totalSupply",
      "outputs": [
        {
          "internalType": "uint256",
          "name": "",
          "type": "uint256"
        }
      ],
      "stateMutability": "view",
      "type": "function"
    },
    {
      "inputs": [
        {
          "internalType": "address",
          "name": "from",
          "type": "address"
        },
        {
          "internalType": "address",
          "name": "to",
          "type": "address"
        },
        {
          "internalType": "uint256",
          "name": "tokenId",
          "type": "uint256"
        }
      ],
      "name": "transferFrom",
      "outputs": [],
      "stateMutability": "payable",
      "type": "function"
    },
    {
      "inputs": [
        {
          "internalType": "address",
          "name": "newOwner",
          "type": "address"
        }
      ],
      "name": "transferOwnership",
      "outputs": [],
      "stateMutability": "nonpayable",
      "type": "function"
    },
    {
      "inputs": [],
      "name": "withdraw",
      "outputs": [],
      "stateMutability": "nonpayable",
      "type": "function"
    },
    {
      "stateMutability": "payable",
      "type": "receive"
    }
  ],
  "bytecode": "0x60806040523480156200001157600080fd5b5060405162003d3938038062003d398339810160408190526200003491620007e0565b6040518060400160405280601381526020017f476f6c64656e2048756e6e79205469636b6574000000000000000000000000008152506040518060400160405280600c81526020016b11d3d3111153951250d2d15560a21b8152508484733cc6cdda760b79bafa08df41ecfa224f810dceb6600185858160029081620000bb919062000969565b506003620000ca828262000969565b5050600160005550620000dd3362000288565b6daaeb6d7670e522a718067333cd4e3b15620002225780156200017057604051633e9f1edf60e11b81523060048201526001600160a01b03831660248201526daaeb6d7670e522a718067333cd4e90637d3e3dbe906044015b600060405180830381600087803b1580156200015157600080fd5b505af115801562000166573d6000803e3d6000fd5b5050505062000222565b6001600160a01b03821615620001c15760405163a0af290360e01b81523060048201526001600160a01b03831660248201526daaeb6d7670e522a718067333cd4e9063a0af29039060440162000136565b604051632210724360e11b81523060048201526daaeb6d7670e522a718067333cd4e90634420e48690602401600060405180830381600087803b1580156200020857600080fd5b505af11580156200021d573d6000803e3d6000fd5b505050505b506200023190508282620002da565b505050506200024681620003df60201b60201c565b62000253600033620003fb565b6200027f7f154c00819833dac601ee5ddded6fda79d9d8b506b911b3dbd54cdb95fe6c36863362000407565b50505062000b61565b600880546001600160a01b038381166001600160a01b0319831681179093556040519116919082907f8be0079c531659141344cd1fd0a4f28419497f9722a3daafe3b4186f6b6457e090600090a35050565b6127106001600160601b03821611156200034e5760405162461bcd60e51b815260206004820152602a60248201527f455243323938313a20726f79616c7479206665652077696c6c206578636565646044820152692073616c65507269636560b01b60648201526084015b60405180910390fd5b6001600160a01b038216620003a65760405162461bcd60e51b815260206004820152601960248201527f455243323938313a20696e76616c696420726563656976657200000000000000604482015260640162000345565b604080518082019091526001600160a01b039092168083526001600160601b039091166020909201829052600160a01b90910217600955565b620003e962000435565b600b620003f7828262000969565b5050565b620003f7828262000493565b6000828152600c602052604090206001015462000424816200051d565b62000430838362000493565b505050565b6008546001600160a01b03163314620004915760405162461bcd60e51b815260206004820181905260248201527f4f776e61626c653a2063616c6c6572206973206e6f7420746865206f776e6572604482015260640162000345565b565b6200049f82826200052c565b620003f7576000828152600c602090815260408083206001600160a01b03851684529091529020805460ff19166001179055620004d93390565b6001600160a01b0316816001600160a01b0316837f2f8788117e7eff1d82e926ec794901d17c78024a50270940304540a733656f0d60405160405180910390a45050565b62000529813362000559565b50565b6000828152600c602090815260408083206001600160a01b038516845290915290205460ff165b92915050565b6200056582826200052c565b620003f7576200058081620005d160201b620014531760201c565b6200059683602062001465620005e4821b17811c565b604051602001620005a992919062000a35565b60408051601f198184030181529082905262461bcd60e51b8252620003459160040162000aae565b6060620005536001600160a01b03831660145b60606000620005f583600262000af9565b6200060290600262000b1b565b6001600160401b038111156200061c576200061c620007a4565b6040519080825280601f01601f19166020018201604052801562000647576020820181803683370190505b509050600360fc1b8160008151811062000665576200066562000b31565b60200101906001600160f81b031916908160001a905350600f60fb1b8160018151811062000697576200069762000b31565b60200101906001600160f81b031916908160001a9053506000620006bd84600262000af9565b620006ca90600162000b1b565b90505b60018111156200074c576f181899199a1a9b1b9c1cb0b131b232b360811b85600f166010811062000702576200070262000b31565b1a60f81b8282815181106200071b576200071b62000b31565b60200101906001600160f81b031916908160001a90535060049490941c93620007448162000b47565b9050620006cd565b5083156200079d5760405162461bcd60e51b815260206004820181905260248201527f537472696e67733a20686578206c656e67746820696e73756666696369656e74604482015260640162000345565b9392505050565b634e487b7160e01b600052604160045260246000fd5b60005b83811015620007d7578181015183820152602001620007bd565b50506000910152565b600080600060608486031215620007f657600080fd5b83516001600160a01b03811681146200080e57600080fd5b60208501519093506001600160601b03811681146200082c57600080fd5b60408501519092506001600160401b03808211156200084a57600080fd5b818601915086601f8301126200085f57600080fd5b815181811115620008745762000874620007a4565b604051601f8201601f19908116603f011681019083821181831017156200089f576200089f620007a4565b81604052828152896020848701011115620008b957600080fd5b620008cc836020830160208801620007ba565b80955050505050509250925092565b600181811c90821680620008f057607f821691505b6020821081036200091157634e487b7160e01b600052602260045260246000fd5b50919050565b601f8211156200043057600081815260208120601f850160051c81016020861015620009405750805b601f850160051c820191505b8181101562000961578281556001016200094c565b505050505050565b81516001600160401b03811115620009855762000985620007a4565b6200099d81620009968454620008db565b8462000917565b602080601f831160018114620009d55760008415620009bc5750858301515b600019600386901b1c1916600185901b17855562000961565b600085815260208120601f198616915b8281101562000a0657888601518255948401946001909101908401620009e5565b508582101562000a255787850151600019600388901b60f8161c191681555b5050505050600190811b01905550565b7f416363657373436f6e74726f6c3a206163636f756e742000000000000000000081526000835162000a6f816017850160208801620007ba565b7001034b99036b4b9b9b4b733903937b6329607d1b601791840191820152835162000aa2816028840160208801620007ba565b01602801949350505050565b602081526000825180602084015262000acf816040850160208701620007ba565b601f01601f19169190910160400192915050565b634e487b7160e01b600052601160045260246000fd5b600081600019048311821515161562000b165762000b1662000ae3565b500290565b8082018082111562000553576200055362000ae3565b634e487b7160e01b600052603260045260246000fd5b60008162000b595762000b5962000ae3565b506000190190565b6131c88062000b716000396000f3fe6080604052600436106102a45760003560e01c80636352211e1161016e578063a217fddf116100cb578063d547741f1161007f578063e985e9c511610064578063e985e9c514610779578063e9a9c850146107c2578063f2fde38b146107f657600080fd5b8063d547741f14610739578063e77c646d1461075957600080fd5b8063b88d4fde116100b0578063b88d4fde146106d9578063c23dc68f146106ec578063c87b56dd1461071957600080fd5b8063a217fddf146106a4578063a22cb465146106b957600080fd5b80638da5cb5b1161012257806395d89b411161010757806395d89b411461064f57806399a2557a146106645780639be226b91461068457600080fd5b80638da5cb5b146105eb57806391d148541461060957600080fd5b806370a082311161015357806370a0823114610589578063715018a6146105a95780638462151c146105be57600080fd5b80636352211e146105495780636a6278421461056957600080fd5b80632f2ff15d1161021c57806341f43434116101d057806355f804b3116101b557806355f804b3146104dc5780635ad2036b146104fc5780635bbb21771461051c57600080fd5b806341f43434146104a757806342842e0e146104c957600080fd5b806336568abe1161020157806336568abe146104525780633771aaa1146104725780633ccfd60b1461049257600080fd5b80632f2ff15d1461041d578063359bccf41461043d57600080fd5b8063095ea7b31161027357806323b872dd1161025857806323b872dd1461039b578063248a9ca3146103ae5780632a55205a146103de57600080fd5b8063095ea7b31461036157806318160ddd1461037457600080fd5b806301ffc9a7146102b057806304634d8d146102e557806306fdde0314610307578063081812fc1461032957600080fd5b366102ab57005b600080fd5b3480156102bc57600080fd5b506102d06102cb3660046127ba565b610816565b60405190151581526020015b60405180910390f35b3480156102f157600080fd5b506103056103003660046127ec565b610827565b005b34801561031357600080fd5b5061031c61083d565b6040516102dc9190612886565b34801561033557600080fd5b50610349610344366004612899565b6108cf565b6040516001600160a01b0390911681526020016102dc565b61030561036f3660046128b2565b61092c565b34801561038057600080fd5b5060015460005403600019015b6040519081526020016102dc565b6103056103a93660046128de565b610945565b3480156103ba57600080fd5b5061038d6103c9366004612899565b6000908152600c602052604090206001015490565b3480156103ea57600080fd5b506103fe6103f936600461291f565b610970565b604080516001600160a01b0390931683526020830191909152016102dc565b34801561042957600080fd5b50610305610438366004612941565b610a4d565b34801561044957600080fd5b5061031c610a72565b34801561045e57600080fd5b5061030561046d366004612941565b610b00565b34801561047e57600080fd5b5061030561048d3660046129c6565b610ba7565b34801561049e57600080fd5b50610305610bf1565b3480156104b357600080fd5b506103496daaeb6d7670e522a718067333cd4e81565b6103056104d73660046128de565b610c3f565b3480156104e857600080fd5b506103056104f7366004612ad0565b610c64565b34801561050857600080fd5b50610305610517366004612b19565b610c78565b34801561052857600080fd5b5061053c610537366004612b36565b610cbe565b6040516102dc9190612bab565b34801561055557600080fd5b50610349610564366004612899565b610d8a565b34801561057557600080fd5b50610305610584366004612b19565b610d95565b34801561059557600080fd5b5061038d6105a4366004612b19565b610dca565b3480156105b557600080fd5b50610305610e32565b3480156105ca57600080fd5b506105de6105d9366004612b19565b610e46565b6040516102dc9190612c28565b3480156105f757600080fd5b506008546001600160a01b0316610349565b34801561061557600080fd5b506102d0610624366004612941565b6000918252600c602090815260408084206001600160a01b0393909316845291905290205460ff1690565b34801561065b57600080fd5b5061031c610f4a565b34801561067057600080fd5b506105de61067f366004612c60565b610f59565b34801561069057600080fd5b50600d54610349906001600160a01b031681565b3480156106b057600080fd5b5061038d600081565b3480156106c557600080fd5b506103056106d4366004612ca3565b6110fa565b6103056106e7366004612cf1565b61110e565b3480156106f857600080fd5b5061070c610707366004612899565b61113b565b6040516102dc9190612d5d565b34801561072557600080fd5b5061031c610734366004612899565b6111c3565b34801561074557600080fd5b50610305610754366004612941565b61125f565b34801561076557600080fd5b50610305610774366004612da2565b611284565b34801561078557600080fd5b506102d0610794366004612de9565b6001600160a01b03918216600090815260076020908152604080832093909416825291909152205460ff1690565b3480156107ce57600080fd5b5061038d7f154c00819833dac601ee5ddded6fda79d9d8b506b911b3dbd54cdb95fe6c368681565b34801561080257600080fd5b50610305610811366004612b19565b6113a9565b6000610821826116a8565b92915050565b61082f6116fe565b6108398282611772565b5050565b60606002805461084c90612e17565b80601f016020809104026020016040519081016040528092919081815260200182805461087890612e17565b80156108c55780601f1061089a576101008083540402835291602001916108c5565b820191906000526020600020905b8154815290600101906020018083116108a857829003601f168201915b5050505050905090565b60006108da826118d1565b610910576040517fcf4700e400000000000000000000000000000000000000000000000000000000815260040160405180910390fd5b506000908152600660205260409020546001600160a01b031690565b816109368161191f565b6109408383611a0a565b505050565b826001600160a01b038116331461095f5761095f3361191f565b61096a848484611adb565b50505050565b6000828152600a602090815260408083208151808301909252546001600160a01b038116808352740100000000000000000000000000000000000000009091046bffffffffffffffffffffffff16928201929092528291610a115750604080518082019091526009546001600160a01b03811682527401000000000000000000000000000000000000000090046bffffffffffffffffffffffff1660208201525b602081015160009061271090610a35906bffffffffffffffffffffffff1687612e99565b610a3f9190612eb8565b915196919550909350505050565b6000828152600c6020526040902060010154610a6881611cfc565b6109408383611d06565b600b8054610a7f90612e17565b80601f0160208091040260200160405190810160405280929190818152602001828054610aab90612e17565b8015610af85780601f10610acd57610100808354040283529160200191610af8565b820191906000526020600020905b815481529060010190602001808311610adb57829003601f168201915b505050505081565b6001600160a01b0381163314610b9d576040517f08c379a000000000000000000000000000000000000000000000000000000000815260206004820152602f60248201527f416363657373436f6e74726f6c3a2063616e206f6e6c792072656e6f756e636560448201527f20726f6c657320666f722073656c66000000000000000000000000000000000060648201526084015b60405180910390fd5b6108398282611dc6565b610baf6116fe565b60005b815181101561083957610bdf828281518110610bd057610bd0612ef3565b60200260200101516001611e67565b80610be981612f22565b915050610bb2565b610bf96116fe565b6000610c06600080610970565b506040519091506001600160a01b038216904780156108fc02916000818181858888f19350505050158015610839573d6000803e3d6000fd5b826001600160a01b0381163314610c5957610c593361191f565b61096a848484611f98565b610c6c6116fe565b600b6108398282612f82565b6000610c8381611cfc565b50600d80547fffffffffffffffffffffffff0000000000000000000000000000000000000000166001600160a01b0392909216919091179055565b60608160008167ffffffffffffffff811115610cdc57610cdc612966565b604051908082528060200260200182016040528015610d2e57816020015b604080516080810182526000808252602080830182905292820181905260608201528252600019909201910181610cfa5790505b50905060005b828114610d8157610d5c868683818110610d5057610d50612ef3565b9050602002013561113b565b828281518110610d6e57610d6e612ef3565b6020908102919091010152600101610d34565b50949350505050565b600061082182611fb3565b7f154c00819833dac601ee5ddded6fda79d9d8b506b911b3dbd54cdb95fe6c3686610dbf81611cfc565b610839826001611e67565b60006001600160a01b038216610e0c576040517f8f4eb60400000000000000000000000000000000000000000000000000000000815260040160405180910390fd5b506001600160a01b031660009081526005602052604090205467ffffffffffffffff1690565b610e3a6116fe565b610e446000612054565b565b60606000806000610e5685610dca565b905060008167ffffffffffffffff811115610e7357610e73612966565b604051908082528060200260200182016040528015610e9c578160200160208202803683370190505b5060408051608081018252600080825260208201819052918101829052606081019190915290915060015b838614610f3e57610ed7816120be565b91508160400151610f365781516001600160a01b031615610ef757815194505b876001600160a01b0316856001600160a01b031603610f365780838780600101985081518110610f2957610f29612ef3565b6020026020010181815250505b600101610ec7565b50909695505050505050565b60606003805461084c90612e17565b6060818310610f94576040517f32c1995a00000000000000000000000000000000000000000000000000000000815260040160405180910390fd5b600080610fa060005490565b90506001851015610fb057600194505b80841115610fbc578093505b6000610fc787610dca565b905084861015610fe65785850381811015610fe0578091505b50610fea565b5060005b60008167ffffffffffffffff81111561100557611005612966565b60405190808252806020026020018201604052801561102e578160200160208202803683370190505b509050816000036110445793506110f392505050565b600061104f8861113b565b905060008160400151611060575080515b885b8881141580156110725750848714155b156110e757611080816120be565b925082604001516110df5782516001600160a01b0316156110a057825191505b8a6001600160a01b0316826001600160a01b0316036110df57808488806001019950815181106110d2576110d2612ef3565b6020026020010181815250505b600101611062565b50505092835250909150505b9392505050565b816111048161191f565b6109408383612156565b836001600160a01b0381163314611128576111283361191f565b611134858585856121e0565b5050505050565b604080516080810182526000808252602082018190529181018290526060810191909152604080516080810182526000808252602082018190529181018290526060810191909152600183108061119457506000548310155b1561119f5792915050565b6111a8836120be565b90508060400151156111ba5792915050565b6110f38361223d565b60606111ce826118d1565b611204576040517fa14c4b5000000000000000000000000000000000000000000000000000000000815260040160405180910390fd5b600061120e6122ce565b9050805160000361122e57604051806020016040528060008152506110f3565b80611238846122dd565b604051602001611249929190613042565b6040516020818303038152906040529392505050565b6000828152600c602052604090206001015461127a81611cfc565b6109408383611dc6565b600061128f83610d8a565b9050336001600160a01b038216146112e1576112ab8133610794565b6112e1576040517fcfb3b94200000000000000000000000000000000000000000000000000000000815260040160405180910390fd5b6112ea83612321565b600d546040517f6a6278420000000000000000000000000000000000000000000000000000000081526001600160a01b03838116600483015290911690636a62784290602401600060405180830381600087803b15801561134a57600080fd5b505af115801561135e573d6000803e3d6000fd5b5050505082816001600160a01b03167fb2c29ffb2fa01a9fb802763277bcbb807c3f71d25581efbaf02b5f7bd3377ecd8460405161139c9190612886565b60405180910390a3505050565b6113b16116fe565b6001600160a01b038116611447576040517f08c379a000000000000000000000000000000000000000000000000000000000815260206004820152602660248201527f4f776e61626c653a206e6577206f776e657220697320746865207a65726f206160448201527f64647265737300000000000000000000000000000000000000000000000000006064820152608401610b94565b61145081612054565b50565b60606108216001600160a01b03831660145b60606000611474836002612e99565b61147f906002613071565b67ffffffffffffffff81111561149757611497612966565b6040519080825280601f01601f1916602001820160405280156114c1576020820181803683370190505b5090507f3000000000000000000000000000000000000000000000000000000000000000816000815181106114f8576114f8612ef3565b60200101907effffffffffffffffffffffffffffffffffffffffffffffffffffffffffffff1916908160001a9053507f78000000000000000000000000000000000000000000000000000000000000008160018151811061155b5761155b612ef3565b60200101907effffffffffffffffffffffffffffffffffffffffffffffffffffffffffffff1916908160001a9053506000611597846002612e99565b6115a2906001613071565b90505b600181111561163f577f303132333435363738396162636465660000000000000000000000000000000085600f16601081106115e3576115e3612ef3565b1a60f81b8282815181106115f9576115f9612ef3565b60200101907effffffffffffffffffffffffffffffffffffffffffffffffffffffffffffff1916908160001a90535060049490941c9361163881613084565b90506115a5565b5083156110f3576040517f08c379a000000000000000000000000000000000000000000000000000000000815260206004820181905260248201527f537472696e67733a20686578206c656e67746820696e73756666696369656e746044820152606401610b94565b60007fffffffff0000000000000000000000000000000000000000000000000000000082167f7965db0b00000000000000000000000000000000000000000000000000000000148061082157506108218261232c565b6008546001600160a01b03163314610e44576040517f08c379a000000000000000000000000000000000000000000000000000000000815260206004820181905260248201527f4f776e61626c653a2063616c6c6572206973206e6f7420746865206f776e65726044820152606401610b94565b6127106bffffffffffffffffffffffff82161115611812576040517f08c379a000000000000000000000000000000000000000000000000000000000815260206004820152602a60248201527f455243323938313a20726f79616c7479206665652077696c6c2065786365656460448201527f2073616c655072696365000000000000000000000000000000000000000000006064820152608401610b94565b6001600160a01b038216611882576040517f08c379a000000000000000000000000000000000000000000000000000000000815260206004820152601960248201527f455243323938313a20696e76616c6964207265636569766572000000000000006044820152606401610b94565b604080518082019091526001600160a01b039092168083526bffffffffffffffffffffffff90911660209092018290527401000000000000000000000000000000000000000090910217600955565b6000816001111580156118e5575060005482105b80156108215750506000908152600460205260409020547c0100000000000000000000000000000000000000000000000000000000161590565b6daaeb6d7670e522a718067333cd4e3b15611450576040517fc61711340000000000000000000000000000000000000000000000000000000081523060048201526001600160a01b03821660248201526daaeb6d7670e522a718067333cd4e9063c617113490604401602060405180830381865afa1580156119a5573d6000803e3d6000fd5b505050506040513d601f19601f820116820180604052508101906119c9919061309b565b611450576040517fede71dcc0000000000000000000000000000000000000000000000000000000081526001600160a01b0382166004820152602401610b94565b6000611a1582610d8a565b9050336001600160a01b03821614611a6757611a318133610794565b611a67576040517fcfb3b94200000000000000000000000000000000000000000000000000000000815260040160405180910390fd5b60008281526006602052604080822080547fffffffffffffffffffffffff0000000000000000000000000000000000000000166001600160a01b0387811691821790925591518593918516917f8c5be1e5ebec7d5bd14f71427d1e84f3dd0314c0f7b2291e5b200ac8c7c3b92591a4505050565b6000611ae682611fb3565b9050836001600160a01b0316816001600160a01b031614611b33576040517fa114810000000000000000000000000000000000000000000000000000000000815260040160405180910390fd5b60008281526006602052604090208054611b5f8187335b6001600160a01b039081169116811491141790565b611ba357611b6d8633610794565b611ba3576040517f59c896be00000000000000000000000000000000000000000000000000000000815260040160405180910390fd5b6001600160a01b038516611be3576040517fea553b3400000000000000000000000000000000000000000000000000000000815260040160405180910390fd5b8015611bee57600082555b6001600160a01b038681166000908152600560205260408082208054600019019055918716808252919020805460010190554260a01b177c0200000000000000000000000000000000000000000000000000000000176000858152600460205260408120919091557c020000000000000000000000000000000000000000000000000000000084169003611cb257600184016000818152600460205260408120549003611cb0576000548114611cb05760008181526004602052604090208490555b505b83856001600160a01b0316876001600160a01b03167fddf252ad1be2c89b69c2b068fc378daa952ba7f163c4a11628f55a4df523b3ef60405160405180910390a45b505050505050565b6114508133612382565b6000828152600c602090815260408083206001600160a01b038516845290915290205460ff16610839576000828152600c602090815260408083206001600160a01b0385168452909152902080547fffffffffffffffffffffffffffffffffffffffffffffffffffffffffffffff00166001179055611d823390565b6001600160a01b0316816001600160a01b0316837f2f8788117e7eff1d82e926ec794901d17c78024a50270940304540a733656f0d60405160405180910390a45050565b6000828152600c602090815260408083206001600160a01b038516845290915290205460ff1615610839576000828152600c602090815260408083206001600160a01b038516808552925280832080547fffffffffffffffffffffffffffffffffffffffffffffffffffffffffffffff0016905551339285917ff6391f5c32d9c69d2a47ea670b442974b53935d1edc7fd64eb21e047a839171b9190a45050565b6000805490829003611ea5576040517fb562e8dd00000000000000000000000000000000000000000000000000000000815260040160405180910390fd5b6001600160a01b03831660008181526005602090815260408083208054680100000000000000018802019055848352600490915281206001851460e11b4260a01b178317905582840190839083907fddf252ad1be2c89b69c2b068fc378daa952ba7f163c4a11628f55a4df523b3ef8180a4600183015b818114611f5457808360007fddf252ad1be2c89b69c2b068fc378daa952ba7f163c4a11628f55a4df523b3ef600080a4600101611f1c565b5081600003611f8f576040517f2e07630000000000000000000000000000000000000000000000000000000000815260040160405180910390fd5b60005550505050565b6109408383836040518060200160405280600081525061110e565b600081806001116120225760005481101561202257600081815260046020526040812054907c010000000000000000000000000000000000000000000000000000000082169003612020575b806000036110f3575060001901600081815260046020526040902054611fff565b505b6040517fdf2d9b4200000000000000000000000000000000000000000000000000000000815260040160405180910390fd5b600880546001600160a01b038381167fffffffffffffffffffffffff0000000000000000000000000000000000000000831681179093556040519116919082907f8be0079c531659141344cd1fd0a4f28419497f9722a3daafe3b4186f6b6457e090600090a35050565b60408051608081018252600080825260208201819052918101829052606081019190915260008281526004602052604090205461082190604080516080810182526001600160a01b038316815260a083901c67ffffffffffffffff1660208201527c0100000000000000000000000000000000000000000000000000000000831615159181019190915260e89190911c606082015290565b3360008181526007602090815260408083206001600160a01b0387168085529083529281902080547fffffffffffffffffffffffffffffffffffffffffffffffffffffffffffffff001686151590811790915590519081529192917f17307eab39ab6107e8899845ad3d59bd9653f200f220920489ca2b5937696c31910160405180910390a35050565b6121eb848484610945565b6001600160a01b0383163b1561096a5761220784848484612411565b61096a576040517fd1a57ed600000000000000000000000000000000000000000000000000000000815260040160405180910390fd5b60408051608081018252600080825260208201819052918101829052606081019190915261082161226d83611fb3565b604080516080810182526001600160a01b038316815260a083901c67ffffffffffffffff1660208201527c0100000000000000000000000000000000000000000000000000000000831615159181019190915260e89190911c606082015290565b6060600b805461084c90612e17565b606060a06040510180604052602081039150506000815280825b600183039250600a81066030018353600a9004806122f75750819003601f19909101908152919050565b611450816000612560565b60007fffffffff0000000000000000000000000000000000000000000000000000000082167f8446a79e0000000000000000000000000000000000000000000000000000000014806108215750610821826126f5565b6000828152600c602090815260408083206001600160a01b038516845290915290205460ff16610839576123b581611453565b6123c0836020611465565b6040516020016123d19291906130b8565b60408051601f19818403018152908290527f08c379a0000000000000000000000000000000000000000000000000000000008252610b9491600401612886565b6040517f150b7a020000000000000000000000000000000000000000000000000000000081526000906001600160a01b0385169063150b7a029061245f903390899088908890600401613139565b6020604051808303816000875af192505050801561249a575060408051601f3d908101601f1916820190925261249791810190613175565b60015b612511573d8080156124c8576040519150601f19603f3d011682016040523d82523d6000602084013e6124cd565b606091505b508051600003612509576040517fd1a57ed600000000000000000000000000000000000000000000000000000000815260040160405180910390fd5b805181602001fd5b7fffffffff00000000000000000000000000000000000000000000000000000000167f150b7a02000000000000000000000000000000000000000000000000000000001490505b949350505050565b600061256b83611fb3565b90508060008061258986600090815260066020526040902080549091565b9150915084156125e25761259e818433611b4a565b6125e2576125ac8333610794565b6125e2576040517f59c896be00000000000000000000000000000000000000000000000000000000815260040160405180910390fd5b80156125ed57600082555b6001600160a01b038316600081815260056020526040902080546fffffffffffffffffffffffffffffffff0190554260a01b177c0300000000000000000000000000000000000000000000000000000000176000878152600460205260408120919091557c0200000000000000000000000000000000000000000000000000000000851690036126ad576001860160008181526004602052604081205490036126ab5760005481146126ab5760008181526004602052604090208590555b505b60405186906000906001600160a01b038616907fddf252ad1be2c89b69c2b068fc378daa952ba7f163c4a11628f55a4df523b3ef908390a45050600180548101905550505050565b60007fffffffff0000000000000000000000000000000000000000000000000000000082167f2a55205a00000000000000000000000000000000000000000000000000000000148061082157507f01ffc9a7000000000000000000000000000000000000000000000000000000007fffffffff00000000000000000000000000000000000000000000000000000000831614610821565b7fffffffff000000000000000000000000000000000000000000000000000000008116811461145057600080fd5b6000602082840312156127cc57600080fd5b81356110f38161278c565b6001600160a01b038116811461145057600080fd5b600080604083850312156127ff57600080fd5b823561280a816127d7565b915060208301356bffffffffffffffffffffffff8116811461282b57600080fd5b809150509250929050565b60005b83811015612851578181015183820152602001612839565b50506000910152565b60008151808452612872816020860160208601612836565b601f01601f19169290920160200192915050565b6020815260006110f3602083018461285a565b6000602082840312156128ab57600080fd5b5035919050565b600080604083850312156128c557600080fd5b82356128d0816127d7565b946020939093013593505050565b6000806000606084860312156128f357600080fd5b83356128fe816127d7565b9250602084013561290e816127d7565b929592945050506040919091013590565b6000806040838503121561293257600080fd5b50508035926020909101359150565b6000806040838503121561295457600080fd5b82359150602083013561282b816127d7565b7f4e487b7100000000000000000000000000000000000000000000000000000000600052604160045260246000fd5b604051601f8201601f1916810167ffffffffffffffff811182821017156129be576129be612966565b604052919050565b600060208083850312156129d957600080fd5b823567ffffffffffffffff808211156129f157600080fd5b818501915085601f830112612a0557600080fd5b813581811115612a1757612a17612966565b8060051b9150612a28848301612995565b8181529183018401918481019088841115612a4257600080fd5b938501935b83851015612a6c5784359250612a5c836127d7565b8282529385019390850190612a47565b98975050505050505050565b600067ffffffffffffffff831115612a9257612a92612966565b612aa56020601f19601f86011601612995565b9050828152838383011115612ab957600080fd5b828260208301376000602084830101529392505050565b600060208284031215612ae257600080fd5b813567ffffffffffffffff811115612af957600080fd5b8201601f81018413612b0a57600080fd5b61255884823560208401612a78565b600060208284031215612b2b57600080fd5b81356110f3816127d7565b60008060208385031215612b4957600080fd5b823567ffffffffffffffff80821115612b6157600080fd5b818501915085601f830112612b7557600080fd5b813581811115612b8457600080fd5b8660208260051b8501011115612b9957600080fd5b60209290920196919550909350505050565b6020808252825182820181905260009190848201906040850190845b81811015610f3e57612c158385516001600160a01b03815116825267ffffffffffffffff602082015116602083015260408101511515604083015262ffffff60608201511660608301525050565b9284019260809290920191600101612bc7565b6020808252825182820181905260009190848201906040850190845b81811015610f3e57835183529284019291840191600101612c44565b600080600060608486031215612c7557600080fd5b8335612c80816127d7565b95602085013595506040909401359392505050565b801515811461145057600080fd5b60008060408385031215612cb657600080fd5b8235612cc1816127d7565b9150602083013561282b81612c95565b600082601f830112612ce257600080fd5b6110f383833560208501612a78565b60008060008060808587031215612d0757600080fd5b8435612d12816127d7565b93506020850135612d22816127d7565b925060408501359150606085013567ffffffffffffffff811115612d4557600080fd5b612d5187828801612cd1565b91505092959194509250565b81516001600160a01b0316815260208083015167ffffffffffffffff169082015260408083015115159082015260608083015162ffffff169082015260808101610821565b60008060408385031215612db557600080fd5b82359150602083013567ffffffffffffffff811115612dd357600080fd5b612ddf85828601612cd1565b9150509250929050565b60008060408385031215612dfc57600080fd5b8235612e07816127d7565b9150602083013561282b816127d7565b600181811c90821680612e2b57607f821691505b602082108103612e64577f4e487b7100000000000000000000000000000000000000000000000000000000600052602260045260246000fd5b50919050565b7f4e487b7100000000000000000000000000000000000000000000000000000000600052601160045260246000fd5b6000816000190483118215151615612eb357612eb3612e6a565b500290565b600082612eee577f4e487b7100000000000000000000000000000000000000000000000000000000600052601260045260246000fd5b500490565b7f4e487b7100000000000000000000000000000000000000000000000000000000600052603260045260246000fd5b60006000198203612f3557612f35612e6a565b5060010190565b601f82111561094057600081815260208120601f850160051c81016020861015612f635750805b601f850160051c820191505b81811015611cf457828155600101612f6f565b815167ffffffffffffffff811115612f9c57612f9c612966565b612fb081612faa8454612e17565b84612f3c565b602080601f831160018114612fe55760008415612fcd5750858301515b600019600386901b1c1916600185901b178555611cf4565b600085815260208120601f198616915b8281101561301457888601518255948401946001909101908401612ff5565b50858210156130325787850151600019600388901b60f8161c191681555b5050505050600190811b01905550565b60008351613054818460208801612836565b835190830190613068818360208801612836565b01949350505050565b8082018082111561082157610821612e6a565b60008161309357613093612e6a565b506000190190565b6000602082840312156130ad57600080fd5b81516110f381612c95565b7f416363657373436f6e74726f6c3a206163636f756e74200000000000000000008152600083516130f0816017850160208801612836565b7f206973206d697373696e6720726f6c6520000000000000000000000000000000601791840191820152835161312d816028840160208801612836565b01602801949350505050565b60006001600160a01b0380871683528086166020840152508360408301526080606083015261316b608083018461285a565b9695505050505050565b60006020828403121561318757600080fd5b81516110f38161278c56fea264697066735822122022c489e277c3547fc3a678ace25e1603573d2b99ccf8c3c6e9f30df9b593317b64736f6c63430008100033",
  "linkReferences": {},
  "deployedLinkReferences": {}
}