{
  "_format": "hh-sol-artifact-1",
  "contractName": "StacysCollab_V2",
  "sourceName": "contracts/StacysCollab_V2.sol",
  "abi": [
    {
      "inputs": [
        {
          "internalType": "address",
          "name": "feeReceiver",
          "type": "address"
        },
        {
          "internalType": "uint96",
          "name": "feeBasisPoints",
          "type": "uint96"
        },
        {
          "internalType": "string",
          "name": "baseURI",
          "type": "string"
        }
      ],
      "stateMutability": "nonpayable",
      "type": "constructor"
    },
    {
      "inputs": [],
      "name": "ApprovalCallerNotOwnerNorApproved",
      "type": "error"
    },
    {
      "inputs": [],
      "name": "ApprovalQueryForNonexistentToken",
      "type": "error"
    },
    {
      "inputs": [],
      "name": "BalanceQueryForZeroAddress",
      "type": "error"
    },
    {
      "inputs": [],
      "name": "InvalidQueryRange",
      "type": "error"
    },
    {
      "inputs": [],
      "name": "MintERC2309QuantityExceedsLimit",
      "type": "error"
    },
    {
      "inputs": [],
      "name": "MintToZeroAddress",
      "type": "error"
    },
    {
      "inputs": [],
      "name": "MintZeroQuantity",
      "type": "error"
    },
    {
      "inputs": [
        {
          "internalType": "address",
          "name": "operator",
          "type": "address"
        }
      ],
      "name": "OperatorNotAllowed",
      "type": "error"
    },
    {
      "inputs": [],
      "name": "OwnerQueryForNonexistentToken",
      "type": "error"
    },
    {
      "inputs": [],
      "name": "OwnershipNotInitializedForExtraData",
      "type": "error"
    },
    {
      "inputs": [],
      "name": "TransferCallerNotOwnerNorApproved",
      "type": "error"
    },
    {
      "inputs": [],
      "name": "TransferFromIncorrectOwner",
      "type": "error"
    },
    {
      "inputs": [],
      "name": "TransferToNonERC721ReceiverImplementer",
      "type": "error"
    },
    {
      "inputs": [],
      "name": "TransferToZeroAddress",
      "type": "error"
    },
    {
      "inputs": [],
      "name": "URIQueryForNonexistentToken",
      "type": "error"
    },
    {
      "anonymous": false,
      "inputs": [
        {
          "indexed": true,
          "internalType": "address",
          "name": "owner",
          "type": "address"
        },
        {
          "indexed": true,
          "internalType": "address",
          "name": "approved",
          "type": "address"
        },
        {
          "indexed": true,
          "internalType": "uint256",
          "name": "tokenId",
          "type": "uint256"
        }
      ],
      "name": "Approval",
      "type": "event"
    },
    {
      "anonymous": false,
      "inputs": [
        {
          "indexed": true,
          "internalType": "address",
          "name": "owner",
          "type": "address"
        },
        {
          "indexed": true,
          "internalType": "address",
          "name": "operator",
          "type": "address"
        },
        {
          "indexed": false,
          "internalType": "bool",
          "name": "approved",
          "type": "bool"
        }
      ],
      "name": "ApprovalForAll",
      "type": "event"
    },
    {
      "anonymous": false,
      "inputs": [
        {
          "indexed": true,
          "internalType": "uint256",
          "name": "fromTokenId",
          "type": "uint256"
        },
        {
          "indexed": false,
          "internalType": "uint256",
          "name": "toTokenId",
          "type": "uint256"
        },
        {
          "indexed": true,
          "internalType": "address",
          "name": "from",
          "type": "address"
        },
        {
          "indexed": true,
          "internalType": "address",
          "name": "to",
          "type": "address"
        }
      ],
      "name": "ConsecutiveTransfer",
      "type": "event"
    },
    {
      "anonymous": false,
      "inputs": [
        {
          "indexed": true,
          "internalType": "address",
          "name": "previousOwner",
          "type": "address"
        },
        {
          "indexed": true,
          "internalType": "address",
          "name": "newOwner",
          "type": "address"
        }
      ],
      "name": "OwnershipTransferred",
      "type": "event"
    },
    {
      "anonymous": false,
      "inputs": [
        {
          "indexed": true,
          "internalType": "address",
          "name": "from",
          "type": "address"
        },
        {
          "indexed": true,
          "internalType": "address",
          "name": "to",
          "type": "address"
        },
        {
          "indexed": true,
          "internalType": "uint256",
          "name": "tokenId",
          "type": "uint256"
        }
      ],
      "name": "Transfer",
      "type": "event"
    },
    {
      "inputs": [],
      "name": "OPERATOR_FILTER_REGISTRY",
      "outputs": [
        {
          "internalType": "contract IOperatorFilterRegistry",
          "name": "",
          "type": "address"
        }
      ],
      "stateMutability": "view",
      "type": "function"
    },
    {
      "inputs": [
        {
          "internalType": "address",
          "name": "operator",
          "type": "address"
        },
        {
          "internalType": "uint256",
          "name": "tokenId",
          "type": "uint256"
        }
      ],
      "name": "approve",
      "outputs": [],
      "stateMutability": "payable",
      "type": "function"
    },
    {
      "inputs": [
        {
          "internalType": "address",
          "name": "owner",
          "type": "address"
        }
      ],
      "name": "balanceOf",
      "outputs": [
        {
          "internalType": "uint256",
          "name": "",
          "type": "uint256"
        }
      ],
      "stateMutability": "view",
      "type": "function"
    },
    {
      "inputs": [
        {
          "internalType": "address[]",
          "name": "_to",
          "type": "address[]"
        }
      ],
      "name": "bulkMint",
      "outputs": [],
      "stateMutability": "nonpayable",
      "type": "function"
    },
    {
      "inputs": [
        {
          "internalType": "uint256",
          "name": "tokenId",
          "type": "uint256"
        }
      ],
      "name": "explicitOwnershipOf",
      "outputs": [
        {
          "components": [
            {
              "internalType": "address",
              "name": "addr",
              "type": "address"
            },
            {
              "internalType": "uint64",
              "name": "startTimestamp",
              "type": "uint64"
            },
            {
              "internalType": "bool",
              "name": "burned",
              "type": "bool"
            },
            {
              "internalType": "uint24",
              "name": "extraData",
              "type": "uint24"
            }
          ],
          "internalType": "struct IERC721A.TokenOwnership",
          "name": "",
          "type": "tuple"
        }
      ],
      "stateMutability": "view",
      "type": "function"
    },
    {
      "inputs": [
        {
          "internalType": "uint256[]",
          "name": "tokenIds",
          "type": "uint256[]"
        }
      ],
      "name": "explicitOwnershipsOf",
      "outputs": [
        {
          "components": [
            {
              "internalType": "address",
              "name": "addr",
              "type": "address"
            },
            {
              "internalType": "uint64",
              "name": "startTimestamp",
              "type": "uint64"
            },
            {
              "internalType": "bool",
              "name": "burned",
              "type": "bool"
            },
            {
              "internalType": "uint24",
              "name": "extraData",
              "type": "uint24"
            }
          ],
          "internalType": "struct IERC721A.TokenOwnership[]",
          "name": "",
          "type": "tuple[]"
        }
      ],
      "stateMutability": "view",
      "type": "function"
    },
    {
      "inputs": [
        {
          "internalType": "uint256",
          "name": "tokenId",
          "type": "uint256"
        }
      ],
      "name": "getApproved",
      "outputs": [
        {
          "internalType": "address",
          "name": "",
          "type": "address"
        }
      ],
      "stateMutability": "view",
      "type": "function"
    },
    {
      "inputs": [
        {
          "internalType": "address",
          "name": "owner",
          "type": "address"
        },
        {
          "internalType": "address",
          "name": "operator",
          "type": "address"
        }
      ],
      "name": "isApprovedForAll",
      "outputs": [
        {
          "internalType": "bool",
          "name": "",
          "type": "bool"
        }
      ],
      "stateMutability": "view",
      "type": "function"
    },
    {
      "inputs": [],
      "name": "m_baseURI",
      "outputs": [
        {
          "internalType": "string",
          "name": "",
          "type": "string"
        }
      ],
      "stateMutability": "view",
      "type": "function"
    },
    {
      "inputs": [],
      "name": "name",
      "outputs": [
        {
          "internalType": "string",
          "name": "",
          "type": "string"
        }
      ],
      "stateMutability": "view",
      "type": "function"
    },
    {
      "inputs": [],
      "name": "owner",
      "outputs": [
        {
          "internalType": "address",
          "name": "",
          "type": "address"
        }
      ],
      "stateMutability": "view",
      "type": "function"
    },
    {
      "inputs": [
        {
          "internalType": "uint256",
          "name": "tokenId",
          "type": "uint256"
        }
      ],
      "name": "ownerOf",
      "outputs": [
        {
          "internalType": "address",
          "name": "",
          "type": "address"
        }
      ],
      "stateMutability": "view",
      "type": "function"
    },
    {
      "inputs": [],
      "name": "renounceOwnership",
      "outputs": [],
      "stateMutability": "nonpayable",
      "type": "function"
    },
    {
      "inputs": [
        {
          "internalType": "uint256",
          "name": "_tokenId",
          "type": "uint256"
        },
        {
          "internalType": "uint256",
          "name": "_salePrice",
          "type": "uint256"
        }
      ],
      "name": "royaltyInfo",
      "outputs": [
        {
          "internalType": "address",
          "name": "",
          "type": "address"
        },
        {
          "internalType": "uint256",
          "name": "",
          "type": "uint256"
        }
      ],
      "stateMutability": "view",
      "type": "function"
    },
    {
      "inputs": [
        {
          "internalType": "address",
          "name": "from",
          "type": "address"
        },
        {
          "internalType": "address",
          "name": "to",
          "type": "address"
        },
        {
          "internalType": "uint256",
          "name": "tokenId",
          "type": "uint256"
        }
      ],
      "name": "safeTransferFrom",
      "outputs": [],
      "stateMutability": "payable",
      "type": "function"
    },
    {
      "inputs": [
        {
          "internalType": "address",
          "name": "from",
          "type": "address"
        },
        {
          "internalType": "address",
          "name": "to",
          "type": "address"
        },
        {
          "internalType": "uint256",
          "name": "tokenId",
          "type": "uint256"
        },
        {
          "internalType": "bytes",
          "name": "data",
          "type": "bytes"
        }
      ],
      "name": "safeTransferFrom",
      "outputs": [],
      "stateMutability": "payable",
      "type": "function"
    },
    {
      "inputs": [
        {
          "internalType": "address",
          "name": "operator",
          "type": "address"
        },
        {
          "internalType": "bool",
          "name": "approved",
          "type": "bool"
        }
      ],
      "name": "setApprovalForAll",
      "outputs": [],
      "stateMutability": "nonpayable",
      "type": "function"
    },
    {
      "inputs": [
        {
          "internalType": "string",
          "name": "newBaseURI",
          "type": "string"
        }
      ],
      "name": "setBaseURI",
      "outputs": [],
      "stateMutability": "nonpayable",
      "type": "function"
    },
    {
      "inputs": [
        {
          "internalType": "address",
          "name": "feeReceiver",
          "type": "address"
        },
        {
          "internalType": "uint96",
          "name": "feeBasis",
          "type": "uint96"
        }
      ],
      "name": "setDefaultRoyalty",
      "outputs": [],
      "stateMutability": "nonpayable",
      "type": "function"
    },
    {
      "inputs": [
        {
          "internalType": "bytes4",
          "name": "interfaceID",
          "type": "bytes4"
        }
      ],
      "name": "supportsInterface",
      "outputs": [
        {
          "internalType": "bool",
          "name": "",
          "type": "bool"
        }
      ],
      "stateMutability": "view",
      "type": "function"
    },
    {
      "inputs": [],
      "name": "symbol",
      "outputs": [
        {
          "internalType": "string",
          "name": "",
          "type": "string"
        }
      ],
      "stateMutability": "view",
      "type": "function"
    },
    {
      "inputs": [
        {
          "internalType": "uint256",
          "name": "tokenId",
          "type": "uint256"
        }
      ],
      "name": "tokenURI",
      "outputs": [
        {
          "internalType": "string",
          "name": "",
          "type": "string"
        }
      ],
      "stateMutability": "view",
      "type": "function"
    },
    {
      "inputs": [
        {
          "internalType": "address",
          "name": "owner",
          "type": "address"
        }
      ],
      "name": "tokensOfOwner",
      "outputs": [
        {
          "internalType": "uint256[]",
          "name": "",
          "type": "uint256[]"
        }
      ],
      "stateMutability": "view",
      "type": "function"
    },
    {
      "inputs": [
        {
          "internalType": "address",
          "name": "owner",
          "type": "address"
        },
        {
          "internalType": "uint256",
          "name": "start",
          "type": "uint256"
        },
        {
          "internalType": "uint256",
          "name": "stop",
          "type": "uint256"
        }
      ],
      "name": "tokensOfOwnerIn",
      "outputs": [
        {
          "internalType": "uint256[]",
          "name": "",
          "type": "uint256[]"
        }
      ],
      "stateMutability": "view",
      "type": "function"
    },
    {
      "inputs": [],
      "name": "totalSupply",
      "outputs": [
        {
          "internalType": "uint256",
          "name": "",
          "type": "uint256"
        }
      ],
      "stateMutability": "view",
      "type": "function"
    },
    {
      "inputs": [
        {
          "internalType": "address",
          "name": "from",
          "type": "address"
        },
        {
          "internalType": "address",
          "name": "to",
          "type": "address"
        },
        {
          "internalType": "uint256",
          "name": "tokenId",
          "type": "uint256"
        }
      ],
      "name": "transferFrom",
      "outputs": [],
      "stateMutability": "payable",
      "type": "function"
    },
    {
      "inputs": [
        {
          "internalType": "address",
          "name": "newOwner",
          "type": "address"
        }
      ],
      "name": "transferOwnership",
      "outputs": [],
      "stateMutability": "nonpayable",
      "type": "function"
    },
    {
      "inputs": [],
      "name": "withdraw",
      "outputs": [],
      "stateMutability": "nonpayable",
      "type": "function"
    },
    {
      "stateMutability": "payable",
      "type": "receive"
    }
  ],
  "bytecode": "0x60806040523480156200001157600080fd5b5060405162002e1c38038062002e1c833981016040819052620000349162000427565b6040518060400160405280600d81526020016c29ba30b1bcb99021b7b63630b160991b8152506040518060400160405280600d81526020016c29aa20a1aca996a1a7a62620a160991b8152508484733cc6cdda760b79bafa08df41ecfa224f810dceb6600185858160029081620000ac9190620005cc565b506003620000bb8282620005cc565b5050600160005550620000ce3362000240565b6daaeb6d7670e522a718067333cd4e3b15620002135780156200016157604051633e9f1edf60e11b81523060048201526001600160a01b03831660248201526daaeb6d7670e522a718067333cd4e90637d3e3dbe906044015b600060405180830381600087803b1580156200014257600080fd5b505af115801562000157573d6000803e3d6000fd5b5050505062000213565b6001600160a01b03821615620001b25760405163a0af290360e01b81523060048201526001600160a01b03831660248201526daaeb6d7670e522a718067333cd4e9063a0af29039060440162000127565b604051632210724360e11b81523060048201526daaeb6d7670e522a718067333cd4e90634420e48690602401600060405180830381600087803b158015620001f957600080fd5b505af11580156200020e573d6000803e3d6000fd5b505050505b50620002229050828262000292565b5050505062000237816200039760201b60201c565b50505062000698565b600880546001600160a01b038381166001600160a01b0319831681179093556040519116919082907f8be0079c531659141344cd1fd0a4f28419497f9722a3daafe3b4186f6b6457e090600090a35050565b6127106001600160601b0382161115620003065760405162461bcd60e51b815260206004820152602a60248201527f455243323938313a20726f79616c7479206665652077696c6c206578636565646044820152692073616c65507269636560b01b60648201526084015b60405180910390fd5b6001600160a01b0382166200035e5760405162461bcd60e51b815260206004820152601960248201527f455243323938313a20696e76616c6964207265636569766572000000000000006044820152606401620002fd565b604080518082019091526001600160a01b039092168083526001600160601b039091166020909201829052600160a01b90910217600955565b620003a1620003b3565b600b620003af8282620005cc565b5050565b6008546001600160a01b031633146200040f5760405162461bcd60e51b815260206004820181905260248201527f4f776e61626c653a2063616c6c6572206973206e6f7420746865206f776e65726044820152606401620002fd565b565b634e487b7160e01b600052604160045260246000fd5b6000806000606084860312156200043d57600080fd5b83516001600160a01b03811681146200045557600080fd5b602085810151919450906001600160601b03811681146200047557600080fd5b60408601519093506001600160401b03808211156200049357600080fd5b818701915087601f830112620004a857600080fd5b815181811115620004bd57620004bd62000411565b604051601f8201601f19908116603f01168101908382118183101715620004e857620004e862000411565b816040528281528a868487010111156200050157600080fd5b600093505b8284101562000525578484018601518185018701529285019262000506565b60008684830101528096505050505050509250925092565b600181811c908216806200055257607f821691505b6020821081036200057357634e487b7160e01b600052602260045260246000fd5b50919050565b601f821115620005c757600081815260208120601f850160051c81016020861015620005a25750805b601f850160051c820191505b81811015620005c357828155600101620005ae565b5050505b505050565b81516001600160401b03811115620005e857620005e862000411565b6200060081620005f984546200053d565b8462000579565b602080601f8311600181146200063857600084156200061f5750858301515b600019600386901b1c1916600185901b178555620005c3565b600085815260208120601f198616915b82811015620006695788860151825594840194600190910190840162000648565b5085821015620006885787850151600019600388901b60f8161c191681555b5050505050600190811b01905550565b61277480620006a86000396000f3fe6080604052600436106101bb5760003560e01c80635bbb2177116100ec57806399a2557a1161008a578063c23dc68f11610064578063c23dc68f146104ff578063c87b56dd1461052c578063e985e9c51461054c578063f2fde38b146105a257600080fd5b806399a2557a146104ac578063a22cb465146104cc578063b88d4fde146104ec57600080fd5b8063715018a6116100c6578063715018a61461042a5780638462151c1461043f5780638da5cb5b1461046c57806395d89b411461049757600080fd5b80635bbb2177146103bd5780636352211e146103ea57806370a082311461040a57600080fd5b80632a55205a116101595780633ccfd60b116101335780633ccfd60b1461035357806341f434341461036857806342842e0e1461038a57806355f804b31461039d57600080fd5b80632a55205a146102d2578063359bccf41461031e5780633771aaa11461033357600080fd5b8063081812fc11610195578063081812fc14610240578063095ea7b31461028557806318160ddd1461029857806323b872dd146102bf57600080fd5b806301ffc9a7146101c757806304634d8d146101fc57806306fdde031461021e57600080fd5b366101c257005b600080fd5b3480156101d357600080fd5b506101e76101e2366004611e61565b6105c2565b60405190151581526020015b60405180910390f35b34801561020857600080fd5b5061021c610217366004611ea7565b61061e565b005b34801561022a57600080fd5b50610233610634565b6040516101f39190611f3f565b34801561024c57600080fd5b5061026061025b366004611f52565b6106c6565b60405173ffffffffffffffffffffffffffffffffffffffff90911681526020016101f3565b61021c610293366004611f6b565b610730565b3480156102a457600080fd5b5060015460005403600019015b6040519081526020016101f3565b61021c6102cd366004611f95565b610749565b3480156102de57600080fd5b506102f26102ed366004611fd1565b610781565b6040805173ffffffffffffffffffffffffffffffffffffffff90931683526020830191909152016101f3565b34801561032a57600080fd5b50610233610878565b34801561033f57600080fd5b5061021c61034e366004612053565b610906565b34801561035f57600080fd5b5061021c610950565b34801561037457600080fd5b506102606daaeb6d7670e522a718067333cd4e81565b61021c610398366004611f95565b6109ab565b3480156103a957600080fd5b5061021c6103b8366004612158565b6109dd565b3480156103c957600080fd5b506103dd6103d83660046121a1565b6109f1565b6040516101f39190612216565b3480156103f657600080fd5b50610260610405366004611f52565b610abd565b34801561041657600080fd5b506102b16104253660046122a0565b610ac8565b34801561043657600080fd5b5061021c610b4a565b34801561044b57600080fd5b5061045f61045a3660046122a0565b610b5e565b6040516101f391906122bb565b34801561047857600080fd5b5060085473ffffffffffffffffffffffffffffffffffffffff16610260565b3480156104a357600080fd5b50610233610c89565b3480156104b857600080fd5b5061045f6104c73660046122f3565b610c98565b3480156104d857600080fd5b5061021c6104e7366004612334565b610e60565b61021c6104fa366004612360565b610e74565b34801561050b57600080fd5b5061051f61051a366004611f52565b610eae565b6040516101f391906123dc565b34801561053857600080fd5b50610233610547366004611f52565b610f36565b34801561055857600080fd5b506101e761056736600461242e565b73ffffffffffffffffffffffffffffffffffffffff918216600090815260076020908152604080832093909416825291909152205460ff1690565b3480156105ae57600080fd5b5061021c6105bd3660046122a0565b610fd2565b60007fffffffff0000000000000000000000000000000000000000000000000000000082167f8446a79e00000000000000000000000000000000000000000000000000000000148061061857506106188261108e565b92915050565b610626611125565b61063082826111a6565b5050565b60606002805461064390612461565b80601f016020809104026020016040519081016040528092919081815260200182805461066f90612461565b80156106bc5780601f10610691576101008083540402835291602001916106bc565b820191906000526020600020905b81548152906001019060200180831161069f57829003601f168201915b5050505050905090565b60006106d18261131f565b610707576040517fcf4700e400000000000000000000000000000000000000000000000000000000815260040160405180910390fd5b5060009081526006602052604090205473ffffffffffffffffffffffffffffffffffffffff1690565b8161073a8161136d565b6107448383611472565b505050565b8273ffffffffffffffffffffffffffffffffffffffff81163314610770576107703361136d565b61077b84848461155d565b50505050565b6000828152600a6020908152604080832081518083019092525473ffffffffffffffffffffffffffffffffffffffff8116808352740100000000000000000000000000000000000000009091046bffffffffffffffffffffffff1692820192909252829161083c57506040805180820190915260095473ffffffffffffffffffffffffffffffffffffffff811682527401000000000000000000000000000000000000000090046bffffffffffffffffffffffff1660208201525b602081015160009061271090610860906bffffffffffffffffffffffff16876124e3565b61086a9190612502565b915196919550909350505050565b600b805461088590612461565b80601f01602080910402602001604051908101604052809291908181526020018280546108b190612461565b80156108fe5780601f106108d3576101008083540402835291602001916108fe565b820191906000526020600020905b8154815290600101906020018083116108e157829003601f168201915b505050505081565b61090e611125565b60005b81518110156106305761093e82828151811061092f5761092f61253d565b602002602001015160016117cf565b806109488161256c565b915050610911565b610958611125565b6000610965600080610781565b5060405190915073ffffffffffffffffffffffffffffffffffffffff8216904780156108fc02916000818181858888f19350505050158015610630573d6000803e3d6000fd5b8273ffffffffffffffffffffffffffffffffffffffff811633146109d2576109d23361136d565b61077b84848461190d565b6109e5611125565b600b61063082826125cc565b60608160008167ffffffffffffffff811115610a0f57610a0f611ff3565b604051908082528060200260200182016040528015610a6157816020015b604080516080810182526000808252602080830182905292820181905260608201528252600019909201910181610a2d5790505b50905060005b828114610ab457610a8f868683818110610a8357610a8361253d565b90506020020135610eae565b828281518110610aa157610aa161253d565b6020908102919091010152600101610a67565b50949350505050565b600061061882611928565b600073ffffffffffffffffffffffffffffffffffffffff8216610b17576040517f8f4eb60400000000000000000000000000000000000000000000000000000000815260040160405180910390fd5b5073ffffffffffffffffffffffffffffffffffffffff1660009081526005602052604090205467ffffffffffffffff1690565b610b52611125565b610b5c60006119c9565b565b60606000806000610b6e85610ac8565b905060008167ffffffffffffffff811115610b8b57610b8b611ff3565b604051908082528060200260200182016040528015610bb4578160200160208202803683370190505b5060408051608081018252600080825260208201819052918101829052606081019190915290915060015b838614610c7d57610bef81611a40565b91508160400151610c7557815173ffffffffffffffffffffffffffffffffffffffff1615610c1c57815194505b8773ffffffffffffffffffffffffffffffffffffffff168573ffffffffffffffffffffffffffffffffffffffff1603610c755780838780600101985081518110610c6857610c6861253d565b6020026020010181815250505b600101610bdf565b50909695505050505050565b60606003805461064390612461565b6060818310610cd3576040517f32c1995a00000000000000000000000000000000000000000000000000000000815260040160405180910390fd5b600080610cdf60005490565b90506001851015610cef57600194505b80841115610cfb578093505b6000610d0687610ac8565b905084861015610d255785850381811015610d1f578091505b50610d29565b5060005b60008167ffffffffffffffff811115610d4457610d44611ff3565b604051908082528060200260200182016040528015610d6d578160200160208202803683370190505b50905081600003610d83579350610e5992505050565b6000610d8e88610eae565b905060008160400151610d9f575080515b885b888114158015610db15750848714155b15610e4d57610dbf81611a40565b92508260400151610e4557825173ffffffffffffffffffffffffffffffffffffffff1615610dec57825191505b8a73ffffffffffffffffffffffffffffffffffffffff168273ffffffffffffffffffffffffffffffffffffffff1603610e455780848880600101995081518110610e3857610e3861253d565b6020026020010181815250505b600101610da1565b50505092835250909150505b9392505050565b81610e6a8161136d565b6107448383611ae5565b8373ffffffffffffffffffffffffffffffffffffffff81163314610e9b57610e9b3361136d565b610ea785858585611b7c565b5050505050565b6040805160808101825260008082526020820181905291810182905260608101919091526040805160808101825260008082526020820181905291810182905260608101919091526001831080610f0757506000548310155b15610f125792915050565b610f1b83611a40565b9050806040015115610f2d5792915050565b610e5983611be6565b6060610f418261131f565b610f77576040517fa14c4b5000000000000000000000000000000000000000000000000000000000815260040160405180910390fd5b6000610f81611c84565b90508051600003610fa15760405180602001604052806000815250610e59565b80610fab84611c93565b604051602001610fbc92919061268c565b6040516020818303038152906040529392505050565b610fda611125565b73ffffffffffffffffffffffffffffffffffffffff8116611082576040517f08c379a000000000000000000000000000000000000000000000000000000000815260206004820152602660248201527f4f776e61626c653a206e6577206f776e657220697320746865207a65726f206160448201527f646472657373000000000000000000000000000000000000000000000000000060648201526084015b60405180910390fd5b61108b816119c9565b50565b60007fffffffff0000000000000000000000000000000000000000000000000000000082167f2a55205a00000000000000000000000000000000000000000000000000000000148061061857507f01ffc9a7000000000000000000000000000000000000000000000000000000007fffffffff00000000000000000000000000000000000000000000000000000000831614610618565b60085473ffffffffffffffffffffffffffffffffffffffff163314610b5c576040517f08c379a000000000000000000000000000000000000000000000000000000000815260206004820181905260248201527f4f776e61626c653a2063616c6c6572206973206e6f7420746865206f776e65726044820152606401611079565b6127106bffffffffffffffffffffffff82161115611246576040517f08c379a000000000000000000000000000000000000000000000000000000000815260206004820152602a60248201527f455243323938313a20726f79616c7479206665652077696c6c2065786365656460448201527f2073616c655072696365000000000000000000000000000000000000000000006064820152608401611079565b73ffffffffffffffffffffffffffffffffffffffff82166112c3576040517f08c379a000000000000000000000000000000000000000000000000000000000815260206004820152601960248201527f455243323938313a20696e76616c6964207265636569766572000000000000006044820152606401611079565b6040805180820190915273ffffffffffffffffffffffffffffffffffffffff9092168083526bffffffffffffffffffffffff90911660209092018290527401000000000000000000000000000000000000000090910217600955565b600081600111158015611333575060005482105b80156106185750506000908152600460205260409020547c0100000000000000000000000000000000000000000000000000000000161590565b6daaeb6d7670e522a718067333cd4e3b1561108b576040517fc617113400000000000000000000000000000000000000000000000000000000815230600482015273ffffffffffffffffffffffffffffffffffffffff821660248201526daaeb6d7670e522a718067333cd4e9063c617113490604401602060405180830381865afa158015611400573d6000803e3d6000fd5b505050506040513d601f19601f8201168201806040525081019061142491906126bb565b61108b576040517fede71dcc00000000000000000000000000000000000000000000000000000000815273ffffffffffffffffffffffffffffffffffffffff82166004820152602401611079565b600061147d82610abd565b90503373ffffffffffffffffffffffffffffffffffffffff8216146114dc576114a68133610567565b6114dc576040517fcfb3b94200000000000000000000000000000000000000000000000000000000815260040160405180910390fd5b60008281526006602052604080822080547fffffffffffffffffffffffff00000000000000000000000000000000000000001673ffffffffffffffffffffffffffffffffffffffff87811691821790925591518593918516917f8c5be1e5ebec7d5bd14f71427d1e84f3dd0314c0f7b2291e5b200ac8c7c3b92591a4505050565b600061156882611928565b90508373ffffffffffffffffffffffffffffffffffffffff168173ffffffffffffffffffffffffffffffffffffffff16146115cf576040517fa114810000000000000000000000000000000000000000000000000000000000815260040160405180910390fd5b600082815260066020526040902080543380821473ffffffffffffffffffffffffffffffffffffffff8816909114176116425761160c8633610567565b611642576040517f59c896be00000000000000000000000000000000000000000000000000000000815260040160405180910390fd5b73ffffffffffffffffffffffffffffffffffffffff851661168f576040517fea553b3400000000000000000000000000000000000000000000000000000000815260040160405180910390fd5b801561169a57600082555b73ffffffffffffffffffffffffffffffffffffffff8681166000908152600560205260408082208054600019019055918716808252919020805460010190554260a01b177c0200000000000000000000000000000000000000000000000000000000176000858152600460205260408120919091557c02000000000000000000000000000000000000000000000000000000008416900361176b576001840160008181526004602052604081205490036117695760005481146117695760008181526004602052604090208490555b505b838573ffffffffffffffffffffffffffffffffffffffff168773ffffffffffffffffffffffffffffffffffffffff167fddf252ad1be2c89b69c2b068fc378daa952ba7f163c4a11628f55a4df523b3ef60405160405180910390a45b505050505050565b600080549082900361180d576040517fb562e8dd00000000000000000000000000000000000000000000000000000000815260040160405180910390fd5b73ffffffffffffffffffffffffffffffffffffffff831660008181526005602090815260408083208054680100000000000000018802019055848352600490915281206001851460e11b4260a01b178317905582840190839083907fddf252ad1be2c89b69c2b068fc378daa952ba7f163c4a11628f55a4df523b3ef8180a4600183015b8181146118c957808360007fddf252ad1be2c89b69c2b068fc378daa952ba7f163c4a11628f55a4df523b3ef600080a4600101611891565b5081600003611904576040517f2e07630000000000000000000000000000000000000000000000000000000000815260040160405180910390fd5b60005550505050565b61074483838360405180602001604052806000815250610e74565b600081806001116119975760005481101561199757600081815260046020526040812054907c010000000000000000000000000000000000000000000000000000000082169003611995575b80600003610e59575060001901600081815260046020526040902054611974565b505b6040517fdf2d9b4200000000000000000000000000000000000000000000000000000000815260040160405180910390fd5b6008805473ffffffffffffffffffffffffffffffffffffffff8381167fffffffffffffffffffffffff0000000000000000000000000000000000000000831681179093556040519116919082907f8be0079c531659141344cd1fd0a4f28419497f9722a3daafe3b4186f6b6457e090600090a35050565b604080516080810182526000808252602082018190529181018290526060810191909152600082815260046020526040902054610618906040805160808101825273ffffffffffffffffffffffffffffffffffffffff8316815260a083901c67ffffffffffffffff1660208201527c0100000000000000000000000000000000000000000000000000000000831615159181019190915260e89190911c606082015290565b33600081815260076020908152604080832073ffffffffffffffffffffffffffffffffffffffff87168085529083529281902080547fffffffffffffffffffffffffffffffffffffffffffffffffffffffffffffff001686151590811790915590519081529192917f17307eab39ab6107e8899845ad3d59bd9653f200f220920489ca2b5937696c31910160405180910390a35050565b611b87848484610749565b73ffffffffffffffffffffffffffffffffffffffff83163b1561077b57611bb084848484611cd7565b61077b576040517fd1a57ed600000000000000000000000000000000000000000000000000000000815260040160405180910390fd5b604080516080810182526000808252602082018190529181018290526060810191909152610618611c1683611928565b6040805160808101825273ffffffffffffffffffffffffffffffffffffffff8316815260a083901c67ffffffffffffffff1660208201527c0100000000000000000000000000000000000000000000000000000000831615159181019190915260e89190911c606082015290565b6060600b805461064390612461565b606060a06040510180604052602081039150506000815280825b600183039250600a81066030018353600a900480611cad5750819003601f19909101908152919050565b6040517f150b7a0200000000000000000000000000000000000000000000000000000000815260009073ffffffffffffffffffffffffffffffffffffffff85169063150b7a0290611d329033908990889088906004016126d8565b6020604051808303816000875af1925050508015611d6d575060408051601f3d908101601f19168201909252611d6a91810190612721565b60015b611de4573d808015611d9b576040519150601f19603f3d011682016040523d82523d6000602084013e611da0565b606091505b508051600003611ddc576040517fd1a57ed600000000000000000000000000000000000000000000000000000000815260040160405180910390fd5b805181602001fd5b7fffffffff00000000000000000000000000000000000000000000000000000000167f150b7a02000000000000000000000000000000000000000000000000000000001490505b949350505050565b7fffffffff000000000000000000000000000000000000000000000000000000008116811461108b57600080fd5b600060208284031215611e7357600080fd5b8135610e5981611e33565b803573ffffffffffffffffffffffffffffffffffffffff81168114611ea257600080fd5b919050565b60008060408385031215611eba57600080fd5b611ec383611e7e565b915060208301356bffffffffffffffffffffffff81168114611ee457600080fd5b809150509250929050565b60005b83811015611f0a578181015183820152602001611ef2565b50506000910152565b60008151808452611f2b816020860160208601611eef565b601f01601f19169290920160200192915050565b602081526000610e596020830184611f13565b600060208284031215611f6457600080fd5b5035919050565b60008060408385031215611f7e57600080fd5b611f8783611e7e565b946020939093013593505050565b600080600060608486031215611faa57600080fd5b611fb384611e7e565b9250611fc160208501611e7e565b9150604084013590509250925092565b60008060408385031215611fe457600080fd5b50508035926020909101359150565b7f4e487b7100000000000000000000000000000000000000000000000000000000600052604160045260246000fd5b604051601f8201601f1916810167ffffffffffffffff8111828210171561204b5761204b611ff3565b604052919050565b6000602080838503121561206657600080fd5b823567ffffffffffffffff8082111561207e57600080fd5b818501915085601f83011261209257600080fd5b8135818111156120a4576120a4611ff3565b8060051b91506120b5848301612022565b81815291830184019184810190888411156120cf57600080fd5b938501935b838510156120f4576120e585611e7e565b825293850193908501906120d4565b98975050505050505050565b600067ffffffffffffffff83111561211a5761211a611ff3565b61212d6020601f19601f86011601612022565b905082815283838301111561214157600080fd5b828260208301376000602084830101529392505050565b60006020828403121561216a57600080fd5b813567ffffffffffffffff81111561218157600080fd5b8201601f8101841361219257600080fd5b611e2b84823560208401612100565b600080602083850312156121b457600080fd5b823567ffffffffffffffff808211156121cc57600080fd5b818501915085601f8301126121e057600080fd5b8135818111156121ef57600080fd5b8660208260051b850101111561220457600080fd5b60209290920196919550909350505050565b6020808252825182820181905260009190848201906040850190845b81811015610c7d5761228d83855173ffffffffffffffffffffffffffffffffffffffff815116825267ffffffffffffffff602082015116602083015260408101511515604083015262ffffff60608201511660608301525050565b9284019260809290920191600101612232565b6000602082840312156122b257600080fd5b610e5982611e7e565b6020808252825182820181905260009190848201906040850190845b81811015610c7d578351835292840192918401916001016122d7565b60008060006060848603121561230857600080fd5b61231184611e7e565b95602085013595506040909401359392505050565b801515811461108b57600080fd5b6000806040838503121561234757600080fd5b61235083611e7e565b91506020830135611ee481612326565b6000806000806080858703121561237657600080fd5b61237f85611e7e565b935061238d60208601611e7e565b925060408501359150606085013567ffffffffffffffff8111156123b057600080fd5b8501601f810187136123c157600080fd5b6123d087823560208401612100565b91505092959194509250565b815173ffffffffffffffffffffffffffffffffffffffff16815260208083015167ffffffffffffffff169082015260408083015115159082015260608083015162ffffff169082015260808101610618565b6000806040838503121561244157600080fd5b61244a83611e7e565b915061245860208401611e7e565b90509250929050565b600181811c9082168061247557607f821691505b6020821081036124ae577f4e487b7100000000000000000000000000000000000000000000000000000000600052602260045260246000fd5b50919050565b7f4e487b7100000000000000000000000000000000000000000000000000000000600052601160045260246000fd5b60008160001904831182151516156124fd576124fd6124b4565b500290565b600082612538577f4e487b7100000000000000000000000000000000000000000000000000000000600052601260045260246000fd5b500490565b7f4e487b7100000000000000000000000000000000000000000000000000000000600052603260045260246000fd5b6000600019820361257f5761257f6124b4565b5060010190565b601f82111561074457600081815260208120601f850160051c810160208610156125ad5750805b601f850160051c820191505b818110156117c7578281556001016125b9565b815167ffffffffffffffff8111156125e6576125e6611ff3565b6125fa816125f48454612461565b84612586565b602080601f83116001811461262f57600084156126175750858301515b600019600386901b1c1916600185901b1785556117c7565b600085815260208120601f198616915b8281101561265e5788860151825594840194600190910190840161263f565b508582101561267c5787850151600019600388901b60f8161c191681555b5050505050600190811b01905550565b6000835161269e818460208801611eef565b8351908301906126b2818360208801611eef565b01949350505050565b6000602082840312156126cd57600080fd5b8151610e5981612326565b600073ffffffffffffffffffffffffffffffffffffffff8087168352808616602084015250836040830152608060608301526127176080830184611f13565b9695505050505050565b60006020828403121561273357600080fd5b8151610e5981611e3356fea26469706673582212200422fb62749fc3f9258a85c1db51496138ec385e3cdfd7bdd04105f7543b9fcb64736f6c63430008100033",
  "linkReferences": {},
  "deployedLinkReferences": {}
}